{
  "_format": "hh-sol-artifact-1",
  "contractName": "NFTCollection",
  "sourceName": "contracts/NFTCollection.sol",
  "abi": [
    {
      "inputs": [],
      "stateMutability": "nonpayable",
      "type": "constructor"
    },
    {
      "anonymous": false,
      "inputs": [
        {
          "indexed": true,
          "internalType": "address",
          "name": "owner",
          "type": "address"
        },
        {
          "indexed": true,
          "internalType": "address",
          "name": "approved",
          "type": "address"
        },
        {
          "indexed": true,
          "internalType": "uint256",
          "name": "tokenId",
          "type": "uint256"
        }
      ],
      "name": "Approval",
      "type": "event"
    },
    {
      "anonymous": false,
      "inputs": [
        {
          "indexed": true,
          "internalType": "address",
          "name": "owner",
          "type": "address"
        },
        {
          "indexed": true,
          "internalType": "address",
          "name": "operator",
          "type": "address"
        },
        {
          "indexed": false,
          "internalType": "bool",
          "name": "approved",
          "type": "bool"
        }
      ],
      "name": "ApprovalForAll",
      "type": "event"
    },
    {
      "anonymous": false,
      "inputs": [
        {
          "indexed": true,
          "internalType": "address",
          "name": "from",
          "type": "address"
        },
        {
          "indexed": true,
          "internalType": "address",
          "name": "to",
          "type": "address"
        },
        {
          "indexed": true,
          "internalType": "uint256",
          "name": "tokenId",
          "type": "uint256"
        }
      ],
      "name": "Transfer",
      "type": "event"
    },
    {
      "inputs": [
        {
          "internalType": "address",
          "name": "to",
          "type": "address"
        },
        {
          "internalType": "uint256",
          "name": "tokenId",
          "type": "uint256"
        }
      ],
      "name": "approve",
      "outputs": [],
      "stateMutability": "nonpayable",
      "type": "function"
    },
    {
      "inputs": [
        {
          "internalType": "address",
          "name": "owner",
          "type": "address"
        }
      ],
      "name": "balanceOf",
      "outputs": [
        {
          "internalType": "uint256",
          "name": "",
          "type": "uint256"
        }
      ],
      "stateMutability": "view",
      "type": "function"
    },
    {
      "inputs": [
        {
          "internalType": "uint256",
          "name": "itemId",
          "type": "uint256"
        },
        {
          "internalType": "address",
          "name": "_nftContract",
          "type": "address"
        }
      ],
      "name": "buyNFT",
      "outputs": [],
      "stateMutability": "payable",
      "type": "function"
    },
    {
      "inputs": [
        {
          "internalType": "string",
          "name": "_tokenURI",
          "type": "string"
        }
      ],
      "name": "createToken",
      "outputs": [
        {
          "internalType": "uint256",
          "name": "",
          "type": "uint256"
        }
      ],
      "stateMutability": "nonpayable",
      "type": "function"
    },
    {
      "inputs": [
        {
          "internalType": "uint256",
          "name": "tokenId",
          "type": "uint256"
        }
      ],
      "name": "getApproved",
      "outputs": [
        {
          "internalType": "address",
          "name": "",
          "type": "address"
        }
      ],
      "stateMutability": "view",
      "type": "function"
    },
    {
      "inputs": [
        {
          "internalType": "uint256",
          "name": "",
          "type": "uint256"
        }
      ],
      "name": "idToMarketItem",
      "outputs": [
        {
          "internalType": "uint256",
          "name": "itemId",
          "type": "uint256"
        },
        {
          "internalType": "uint256",
          "name": "tokenId",
          "type": "uint256"
        },
        {
          "internalType": "address payable",
          "name": "seller",
          "type": "address"
        },
        {
          "internalType": "address payable",
          "name": "owner",
          "type": "address"
        },
        {
          "internalType": "uint256",
          "name": "price",
          "type": "uint256"
        },
        {
          "internalType": "uint256",
          "name": "uploadedAt",
          "type": "uint256"
        },
        {
          "internalType": "uint256",
          "name": "lastTransactionDate",
          "type": "uint256"
        }
      ],
      "stateMutability": "view",
      "type": "function"
    },
    {
      "inputs": [
        {
          "internalType": "address",
          "name": "owner",
          "type": "address"
        },
        {
          "internalType": "address",
          "name": "operator",
          "type": "address"
        }
      ],
      "name": "isApprovedForAll",
      "outputs": [
        {
          "internalType": "bool",
          "name": "",
          "type": "bool"
        }
      ],
      "stateMutability": "view",
      "type": "function"
    },
    {
      "inputs": [
        {
          "internalType": "uint256",
          "name": "_tokenId",
          "type": "uint256"
        },
        {
          "internalType": "uint256",
          "name": "_listingPrice",
          "type": "uint256"
        }
      ],
      "name": "listNFT",
      "outputs": [],
      "stateMutability": "payable",
      "type": "function"
    },
    {
      "inputs": [
        {
          "internalType": "address",
          "name": "_address",
          "type": "address"
        }
      ],
      "name": "myTokens",
      "outputs": [
        {
          "components": [
            {
              "internalType": "uint256[]",
              "name": "userTokens",
              "type": "uint256[]"
            },
            {
              "internalType": "address",
              "name": "creator",
              "type": "address"
            },
            {
              "internalType": "string[]",
              "name": "tokenURI",
              "type": "string[]"
            }
          ],
          "internalType": "struct NFTCollection.Token",
          "name": "",
          "type": "tuple"
        }
      ],
      "stateMutability": "view",
      "type": "function"
    },
    {
      "inputs": [],
      "name": "name",
      "outputs": [
        {
          "internalType": "string",
          "name": "",
          "type": "string"
        }
      ],
      "stateMutability": "view",
      "type": "function"
    },
    {
      "inputs": [
        {
          "internalType": "uint256",
          "name": "tokenId",
          "type": "uint256"
        }
      ],
      "name": "ownerOf",
      "outputs": [
        {
          "internalType": "address",
          "name": "",
          "type": "address"
        }
      ],
      "stateMutability": "view",
      "type": "function"
    },
    {
      "inputs": [
        {
          "internalType": "address",
          "name": "from",
          "type": "address"
        },
        {
          "internalType": "address",
          "name": "to",
          "type": "address"
        },
        {
          "internalType": "uint256",
          "name": "tokenId",
          "type": "uint256"
        }
      ],
      "name": "safeTransferFrom",
      "outputs": [],
      "stateMutability": "nonpayable",
      "type": "function"
    },
    {
      "inputs": [
        {
          "internalType": "address",
          "name": "from",
          "type": "address"
        },
        {
          "internalType": "address",
          "name": "to",
          "type": "address"
        },
        {
          "internalType": "uint256",
          "name": "tokenId",
          "type": "uint256"
        },
        {
          "internalType": "bytes",
          "name": "data",
          "type": "bytes"
        }
      ],
      "name": "safeTransferFrom",
      "outputs": [],
      "stateMutability": "nonpayable",
      "type": "function"
    },
    {
      "inputs": [
        {
          "internalType": "address",
          "name": "operator",
          "type": "address"
        },
        {
          "internalType": "bool",
          "name": "approved",
          "type": "bool"
        }
      ],
      "name": "setApprovalForAll",
      "outputs": [],
      "stateMutability": "nonpayable",
      "type": "function"
    },
    {
      "inputs": [
        {
          "internalType": "bytes4",
          "name": "interfaceId",
          "type": "bytes4"
        }
      ],
      "name": "supportsInterface",
      "outputs": [
        {
          "internalType": "bool",
          "name": "",
          "type": "bool"
        }
      ],
      "stateMutability": "view",
      "type": "function"
    },
    {
      "inputs": [],
      "name": "symbol",
      "outputs": [
        {
          "internalType": "string",
          "name": "",
          "type": "string"
        }
      ],
      "stateMutability": "view",
      "type": "function"
    },
    {
      "inputs": [
        {
          "internalType": "uint256",
          "name": "tokenId",
          "type": "uint256"
        }
      ],
      "name": "tokenURI",
      "outputs": [
        {
          "internalType": "string",
          "name": "",
          "type": "string"
        }
      ],
      "stateMutability": "view",
      "type": "function"
    },
    {
      "inputs": [
        {
          "internalType": "address",
          "name": "from",
          "type": "address"
        },
        {
          "internalType": "address",
          "name": "to",
          "type": "address"
        },
        {
          "internalType": "uint256",
          "name": "tokenId",
          "type": "uint256"
        }
      ],
      "name": "transferFrom",
      "outputs": [],
      "stateMutability": "nonpayable",
      "type": "function"
    }
  ],
  "bytecode": "0x60806040523480156200001157600080fd5b506040518060400160405280600e81526020017f4e465420436f6c6c656374696f6e0000000000000000000000000000000000008152506040518060400160405280600481526020017f4e46544300000000000000000000000000000000000000000000000000000000815250816000908051906020019062000096929190620000b8565b508060019080519060200190620000af929190620000b8565b505050620001cd565b828054620000c69062000197565b90600052602060002090601f016020900481019282620000ea576000855562000136565b82601f106200010557805160ff191683800117855562000136565b8280016001018555821562000136579182015b828111156200013557825182559160200191906001019062000118565b5b50905062000145919062000149565b5090565b5b80821115620001645760008160009055506001016200014a565b5090565b7f4e487b7100000000000000000000000000000000000000000000000000000000600052602260045260246000fd5b60006002820490506001821680620001b057607f821691505b60208210811415620001c757620001c662000168565b5b50919050565b61387680620001dd6000396000f3fe6080604052600436106101095760003560e01c806394383f1411610095578063c87b56dd11610064578063c87b56dd1461037e578063d8db47a7146103bb578063dc1df3f6146103d7578063e61a70c014610414578063e985e9c51461045757610109565b806394383f14146102e557806395d89b4114610301578063a22cb4651461032c578063b88d4fde1461035557610109565b806323b872dd116100dc57806323b872dd146101dc57806342842e0e1461020557806345576f941461022e5780636352211e1461026b57806370a08231146102a857610109565b806301ffc9a71461010e57806306fdde031461014b578063081812fc14610176578063095ea7b3146101b3575b600080fd5b34801561011a57600080fd5b50610135600480360381019061013091906122ea565b610494565b6040516101429190612332565b60405180910390f35b34801561015757600080fd5b50610160610576565b60405161016d91906123e6565b60405180910390f35b34801561018257600080fd5b5061019d6004803603810190610198919061243e565b610608565b6040516101aa91906124ac565b60405180910390f35b3480156101bf57600080fd5b506101da60048036038101906101d591906124f3565b61064e565b005b3480156101e857600080fd5b5061020360048036038101906101fe9190612533565b610766565b005b34801561021157600080fd5b5061022c60048036038101906102279190612533565b6107c6565b005b34801561023a57600080fd5b50610255600480360381019061025091906126bb565b6107e6565b6040516102629190612713565b60405180910390f35b34801561027757600080fd5b50610292600480360381019061028d919061243e565b61098d565b60405161029f91906124ac565b60405180910390f35b3480156102b457600080fd5b506102cf60048036038101906102ca919061272e565b610a3f565b6040516102dc9190612713565b60405180910390f35b6102ff60048036038101906102fa919061275b565b610af7565b005b34801561030d57600080fd5b50610316610cdb565b60405161032391906123e6565b60405180910390f35b34801561033857600080fd5b50610353600480360381019061034e91906127c7565b610d6d565b005b34801561036157600080fd5b5061037c600480360381019061037791906128a8565b610d83565b005b34801561038a57600080fd5b506103a560048036038101906103a0919061243e565b610de5565b6040516103b291906123e6565b60405180910390f35b6103d560048036038101906103d0919061292b565b610ef8565b005b3480156103e357600080fd5b506103fe60048036038101906103f9919061272e565b611178565b60405161040b9190612b9b565b60405180910390f35b34801561042057600080fd5b5061043b6004803603810190610436919061243e565b611358565b60405161044e9796959493929190612bde565b60405180910390f35b34801561046357600080fd5b5061047e60048036038101906104799190612c4d565b6113da565b60405161048b9190612332565b60405180910390f35b60007f80ac58cd000000000000000000000000000000000000000000000000000000007bffffffffffffffffffffffffffffffffffffffffffffffffffffffff1916827bffffffffffffffffffffffffffffffffffffffffffffffffffffffff1916148061055f57507f5b5e139f000000000000000000000000000000000000000000000000000000007bffffffffffffffffffffffffffffffffffffffffffffffffffffffff1916827bffffffffffffffffffffffffffffffffffffffffffffffffffffffff1916145b8061056f575061056e8261146e565b5b9050919050565b60606000805461058590612cbc565b80601f01602080910402602001604051908101604052809291908181526020018280546105b190612cbc565b80156105fe5780601f106105d3576101008083540402835291602001916105fe565b820191906000526020600020905b8154815290600101906020018083116105e157829003601f168201915b5050505050905090565b6000610613826114d8565b6004600083815260200190815260200160002060009054906101000a900473ffffffffffffffffffffffffffffffffffffffff169050919050565b60006106598261098d565b90508073ffffffffffffffffffffffffffffffffffffffff168373ffffffffffffffffffffffffffffffffffffffff1614156106ca576040517f08c379a00000000000000000000000000000000000000000000000000000000081526004016106c190612d60565b60405180910390fd5b8073ffffffffffffffffffffffffffffffffffffffff166106e9611523565b73ffffffffffffffffffffffffffffffffffffffff161480610718575061071781610712611523565b6113da565b5b610757576040517f08c379a000000000000000000000000000000000000000000000000000000000815260040161074e90612df2565b60405180910390fd5b610761838361152b565b505050565b610777610771611523565b826115e4565b6107b6576040517f08c379a00000000000000000000000000000000000000000000000000000000081526004016107ad90612e84565b60405180910390fd5b6107c1838383611679565b505050565b6107e183838360405180602001604052806000815250610d83565b505050565b6000806107f360076118e0565b90506107ff33826118ee565b610809818461190c565b6108136007611980565b61081e306001610d6d565b600960003373ffffffffffffffffffffffffffffffffffffffff1673ffffffffffffffffffffffffffffffffffffffff16815260200190815260200160002060000181908060018154018082558091505060019003906000526020600020016000909190919091505533600960003373ffffffffffffffffffffffffffffffffffffffff1673ffffffffffffffffffffffffffffffffffffffff16815260200190815260200160002060010160006101000a81548173ffffffffffffffffffffffffffffffffffffffff021916908373ffffffffffffffffffffffffffffffffffffffff160217905550600960003373ffffffffffffffffffffffffffffffffffffffff1673ffffffffffffffffffffffffffffffffffffffff168152602001908152602001600020600201839080600181540180825580915050600190039060005260206000200160009091909190915090805190602001906109839291906121a4565b5080915050919050565b6000806002600084815260200190815260200160002060009054906101000a900473ffffffffffffffffffffffffffffffffffffffff169050600073ffffffffffffffffffffffffffffffffffffffff168173ffffffffffffffffffffffffffffffffffffffff161415610a36576040517f08c379a0000000000000000000000000000000000000000000000000000000008152600401610a2d90612ef0565b60405180910390fd5b80915050919050565b60008073ffffffffffffffffffffffffffffffffffffffff168273ffffffffffffffffffffffffffffffffffffffff161415610ab0576040517f08c379a0000000000000000000000000000000000000000000000000000000008152600401610aa790612f82565b60405180910390fd5b600360008373ffffffffffffffffffffffffffffffffffffffff1673ffffffffffffffffffffffffffffffffffffffff168152602001908152602001600020549050919050565b60008111610b3a576040517f08c379a0000000000000000000000000000000000000000000000000000000008152600401610b3190612fee565b60405180910390fd5b80341015610b7d576040517f08c379a0000000000000000000000000000000000000000000000000000000008152600401610b749061305a565b60405180910390fd5b6000610b8960086118e0565b90506040518060e001604052808281526020018481526020013373ffffffffffffffffffffffffffffffffffffffff168152602001600073ffffffffffffffffffffffffffffffffffffffff16815260200183815260200142815260200142815250600a6000838152602001908152602001600020600082015181600001556020820151816001015560408201518160020160006101000a81548173ffffffffffffffffffffffffffffffffffffffff021916908373ffffffffffffffffffffffffffffffffffffffff16021790555060608201518160030160006101000a81548173ffffffffffffffffffffffffffffffffffffffff021916908373ffffffffffffffffffffffffffffffffffffffff1602179055506080820151816004015560a0820151816005015560c08201518160060155905050610ccc3330856107c6565b610cd66008611980565b505050565b606060018054610cea90612cbc565b80601f0160208091040260200160405190810160405280929190818152602001828054610d1690612cbc565b8015610d635780601f10610d3857610100808354040283529160200191610d63565b820191906000526020600020905b815481529060010190602001808311610d4657829003601f168201915b5050505050905090565b610d7f610d78611523565b8383611996565b5050565b610d94610d8e611523565b836115e4565b610dd3576040517f08c379a0000000000000000000000000000000000000000000000000000000008152600401610dca90612e84565b60405180910390fd5b610ddf84848484611b03565b50505050565b6060610df0826114d8565b6000600660008481526020019081526020016000208054610e1090612cbc565b80601f0160208091040260200160405190810160405280929190818152602001828054610e3c90612cbc565b8015610e895780601f10610e5e57610100808354040283529160200191610e89565b820191906000526020600020905b815481529060010190602001808311610e6c57829003601f168201915b505050505090506000610e9a611b5f565b9050600081511415610eb0578192505050610ef3565b600082511115610ee5578082604051602001610ecd9291906130b6565b60405160208183030381529060405292505050610ef3565b610eee84611b76565b925050505b919050565b6000600a60008481526020019081526020016000206004015490506000600a60008581526020019081526020016000206001015490503373ffffffffffffffffffffffffffffffffffffffff16600a600086815260200190815260200160002060020160009054906101000a900473ffffffffffffffffffffffffffffffffffffffff1673ffffffffffffffffffffffffffffffffffffffff161415610fd3576040517f08c379a0000000000000000000000000000000000000000000000000000000008152600401610fca90613126565b60405180910390fd5b81341015611016576040517f08c379a000000000000000000000000000000000000000000000000000000000815260040161100d906131b8565b60405180910390fd5b600a600085815260200190815260200160002060020160009054906101000a900473ffffffffffffffffffffffffffffffffffffffff1673ffffffffffffffffffffffffffffffffffffffff166108fc349081150290604051600060405180830381858888f19350505050158015611092573d6000803e3d6000fd5b5033600a600086815260200190815260200160002060030160006101000a81548173ffffffffffffffffffffffffffffffffffffffff021916908373ffffffffffffffffffffffffffffffffffffffff1602179055508273ffffffffffffffffffffffffffffffffffffffff166323b872dd3033846040518463ffffffff1660e01b8152600401611125939291906131d8565b600060405180830381600087803b15801561113f57600080fd5b505af1158015611153573d6000803e3d6000fd5b5050505042600a60008681526020019081526020016000206006018190555050505050565b61118061222a565b600960008373ffffffffffffffffffffffffffffffffffffffff1673ffffffffffffffffffffffffffffffffffffffff1681526020019081526020016000206040518060600160405290816000820180548060200260200160405190810160405280929190818152602001828054801561121957602002820191906000526020600020905b815481526020019060010190808311611205575b505050505081526020016001820160009054906101000a900473ffffffffffffffffffffffffffffffffffffffff1673ffffffffffffffffffffffffffffffffffffffff1673ffffffffffffffffffffffffffffffffffffffff16815260200160028201805480602002602001604051908101604052809291908181526020016000905b828210156113495783829060005260206000200180546112bc90612cbc565b80601f01602080910402602001604051908101604052809291908181526020018280546112e890612cbc565b80156113355780601f1061130a57610100808354040283529160200191611335565b820191906000526020600020905b81548152906001019060200180831161131857829003601f168201915b50505050508152602001906001019061129d565b50505050815250509050919050565b600a6020528060005260406000206000915090508060000154908060010154908060020160009054906101000a900473ffffffffffffffffffffffffffffffffffffffff16908060030160009054906101000a900473ffffffffffffffffffffffffffffffffffffffff16908060040154908060050154908060060154905087565b6000600560008473ffffffffffffffffffffffffffffffffffffffff1673ffffffffffffffffffffffffffffffffffffffff16815260200190815260200160002060008373ffffffffffffffffffffffffffffffffffffffff1673ffffffffffffffffffffffffffffffffffffffff16815260200190815260200160002060009054906101000a900460ff16905092915050565b60007f01ffc9a7000000000000000000000000000000000000000000000000000000007bffffffffffffffffffffffffffffffffffffffffffffffffffffffff1916827bffffffffffffffffffffffffffffffffffffffffffffffffffffffff1916149050919050565b6114e181611bde565b611520576040517f08c379a000000000000000000000000000000000000000000000000000000000815260040161151790612ef0565b60405180910390fd5b50565b600033905090565b816004600083815260200190815260200160002060006101000a81548173ffffffffffffffffffffffffffffffffffffffff021916908373ffffffffffffffffffffffffffffffffffffffff160217905550808273ffffffffffffffffffffffffffffffffffffffff1661159e8361098d565b73ffffffffffffffffffffffffffffffffffffffff167f8c5be1e5ebec7d5bd14f71427d1e84f3dd0314c0f7b2291e5b200ac8c7c3b92560405160405180910390a45050565b6000806115f08361098d565b90508073ffffffffffffffffffffffffffffffffffffffff168473ffffffffffffffffffffffffffffffffffffffff161480611632575061163181856113da565b5b8061167057508373ffffffffffffffffffffffffffffffffffffffff1661165884610608565b73ffffffffffffffffffffffffffffffffffffffff16145b91505092915050565b8273ffffffffffffffffffffffffffffffffffffffff166116998261098d565b73ffffffffffffffffffffffffffffffffffffffff16146116ef576040517f08c379a00000000000000000000000000000000000000000000000000000000081526004016116e690613281565b60405180910390fd5b600073ffffffffffffffffffffffffffffffffffffffff168273ffffffffffffffffffffffffffffffffffffffff16141561175f576040517f08c379a000000000000000000000000000000000000000000000000000000000815260040161175690613313565b60405180910390fd5b61176a838383611c4a565b61177560008261152b565b6001600360008573ffffffffffffffffffffffffffffffffffffffff1673ffffffffffffffffffffffffffffffffffffffff16815260200190815260200160002060008282546117c59190613362565b925050819055506001600360008473ffffffffffffffffffffffffffffffffffffffff1673ffffffffffffffffffffffffffffffffffffffff168152602001908152602001600020600082825461181c9190613396565b92505081905550816002600083815260200190815260200160002060006101000a81548173ffffffffffffffffffffffffffffffffffffffff021916908373ffffffffffffffffffffffffffffffffffffffff160217905550808273ffffffffffffffffffffffffffffffffffffffff168473ffffffffffffffffffffffffffffffffffffffff167fddf252ad1be2c89b69c2b068fc378daa952ba7f163c4a11628f55a4df523b3ef60405160405180910390a46118db838383611c4f565b505050565b600081600001549050919050565b611908828260405180602001604052806000815250611c54565b5050565b61191582611bde565b611954576040517f08c379a000000000000000000000000000000000000000000000000000000000815260040161194b9061345e565b60405180910390fd5b8060066000848152602001908152602001600020908051906020019061197b9291906121a4565b505050565b6001816000016000828254019250508190555050565b8173ffffffffffffffffffffffffffffffffffffffff168373ffffffffffffffffffffffffffffffffffffffff161415611a05576040517f08c379a00000000000000000000000000000000000000000000000000000000081526004016119fc906134ca565b60405180910390fd5b80600560008573ffffffffffffffffffffffffffffffffffffffff1673ffffffffffffffffffffffffffffffffffffffff16815260200190815260200160002060008473ffffffffffffffffffffffffffffffffffffffff1673ffffffffffffffffffffffffffffffffffffffff16815260200190815260200160002060006101000a81548160ff0219169083151502179055508173ffffffffffffffffffffffffffffffffffffffff168373ffffffffffffffffffffffffffffffffffffffff167f17307eab39ab6107e8899845ad3d59bd9653f200f220920489ca2b5937696c3183604051611af69190612332565b60405180910390a3505050565b611b0e848484611679565b611b1a84848484611caf565b611b59576040517f08c379a0000000000000000000000000000000000000000000000000000000008152600401611b509061355c565b60405180910390fd5b50505050565b606060405180602001604052806000815250905090565b6060611b81826114d8565b6000611b8b611b5f565b90506000815111611bab5760405180602001604052806000815250611bd6565b80611bb584611e46565b604051602001611bc69291906130b6565b6040516020818303038152906040525b915050919050565b60008073ffffffffffffffffffffffffffffffffffffffff166002600084815260200190815260200160002060009054906101000a900473ffffffffffffffffffffffffffffffffffffffff1673ffffffffffffffffffffffffffffffffffffffff1614159050919050565b505050565b505050565b611c5e8383611fa7565b611c6b6000848484611caf565b611caa576040517f08c379a0000000000000000000000000000000000000000000000000000000008152600401611ca19061355c565b60405180910390fd5b505050565b6000611cd08473ffffffffffffffffffffffffffffffffffffffff16612181565b15611e39578373ffffffffffffffffffffffffffffffffffffffff1663150b7a02611cf9611523565b8786866040518563ffffffff1660e01b8152600401611d1b94939291906135d1565b602060405180830381600087803b158015611d3557600080fd5b505af1925050508015611d6657506040513d601f19601f82011682018060405250810190611d639190613632565b60015b611de9573d8060008114611d96576040519150601f19603f3d011682016040523d82523d6000602084013e611d9b565b606091505b50600081511415611de1576040517f08c379a0000000000000000000000000000000000000000000000000000000008152600401611dd89061355c565b60405180910390fd5b805181602001fd5b63150b7a0260e01b7bffffffffffffffffffffffffffffffffffffffffffffffffffffffff1916817bffffffffffffffffffffffffffffffffffffffffffffffffffffffff191614915050611e3e565b600190505b949350505050565b60606000821415611e8e576040518060400160405280600181526020017f30000000000000000000000000000000000000000000000000000000000000008152509050611fa2565b600082905060005b60008214611ec0578080611ea99061365f565b915050600a82611eb991906136d7565b9150611e96565b60008167ffffffffffffffff811115611edc57611edb612590565b5b6040519080825280601f01601f191660200182016040528015611f0e5781602001600182028036833780820191505090505b5090505b60008514611f9b57600182611f279190613362565b9150600a85611f369190613708565b6030611f429190613396565b60f81b818381518110611f5857611f57613739565b5b60200101907effffffffffffffffffffffffffffffffffffffffffffffffffffffffffffff1916908160001a905350600a85611f9491906136d7565b9450611f12565b8093505050505b919050565b600073ffffffffffffffffffffffffffffffffffffffff168273ffffffffffffffffffffffffffffffffffffffff161415612017576040517f08c379a000000000000000000000000000000000000000000000000000000000815260040161200e906137b4565b60405180910390fd5b61202081611bde565b15612060576040517f08c379a000000000000000000000000000000000000000000000000000000000815260040161205790613820565b60405180910390fd5b61206c60008383611c4a565b6001600360008473ffffffffffffffffffffffffffffffffffffffff1673ffffffffffffffffffffffffffffffffffffffff16815260200190815260200160002060008282546120bc9190613396565b92505081905550816002600083815260200190815260200160002060006101000a81548173ffffffffffffffffffffffffffffffffffffffff021916908373ffffffffffffffffffffffffffffffffffffffff160217905550808273ffffffffffffffffffffffffffffffffffffffff16600073ffffffffffffffffffffffffffffffffffffffff167fddf252ad1be2c89b69c2b068fc378daa952ba7f163c4a11628f55a4df523b3ef60405160405180910390a461217d60008383611c4f565b5050565b6000808273ffffffffffffffffffffffffffffffffffffffff163b119050919050565b8280546121b090612cbc565b90600052602060002090601f0160209004810192826121d25760008555612219565b82601f106121eb57805160ff1916838001178555612219565b82800160010185558215612219579182015b828111156122185782518255916020019190600101906121fd565b5b5090506122269190612261565b5090565b604051806060016040528060608152602001600073ffffffffffffffffffffffffffffffffffffffff168152602001606081525090565b5b8082111561227a576000816000905550600101612262565b5090565b6000604051905090565b600080fd5b600080fd5b60007fffffffff0000000000000000000000000000000000000000000000000000000082169050919050565b6122c781612292565b81146122d257600080fd5b50565b6000813590506122e4816122be565b92915050565b600060208284031215612300576122ff612288565b5b600061230e848285016122d5565b91505092915050565b60008115159050919050565b61232c81612317565b82525050565b60006020820190506123476000830184612323565b92915050565b600081519050919050565b600082825260208201905092915050565b60005b8381101561238757808201518184015260208101905061236c565b83811115612396576000848401525b50505050565b6000601f19601f8301169050919050565b60006123b88261234d565b6123c28185612358565b93506123d2818560208601612369565b6123db8161239c565b840191505092915050565b6000602082019050818103600083015261240081846123ad565b905092915050565b6000819050919050565b61241b81612408565b811461242657600080fd5b50565b60008135905061243881612412565b92915050565b60006020828403121561245457612453612288565b5b600061246284828501612429565b91505092915050565b600073ffffffffffffffffffffffffffffffffffffffff82169050919050565b60006124968261246b565b9050919050565b6124a68161248b565b82525050565b60006020820190506124c1600083018461249d565b92915050565b6124d08161248b565b81146124db57600080fd5b50565b6000813590506124ed816124c7565b92915050565b6000806040838503121561250a57612509612288565b5b6000612518858286016124de565b925050602061252985828601612429565b9150509250929050565b60008060006060848603121561254c5761254b612288565b5b600061255a868287016124de565b935050602061256b868287016124de565b925050604061257c86828701612429565b9150509250925092565b600080fd5b600080fd5b7f4e487b7100000000000000000000000000000000000000000000000000000000600052604160045260246000fd5b6125c88261239c565b810181811067ffffffffffffffff821117156125e7576125e6612590565b5b80604052505050565b60006125fa61227e565b905061260682826125bf565b919050565b600067ffffffffffffffff82111561262657612625612590565b5b61262f8261239c565b9050602081019050919050565b82818337600083830152505050565b600061265e6126598461260b565b6125f0565b90508281526020810184848401111561267a5761267961258b565b5b61268584828561263c565b509392505050565b600082601f8301126126a2576126a1612586565b5b81356126b284826020860161264b565b91505092915050565b6000602082840312156126d1576126d0612288565b5b600082013567ffffffffffffffff8111156126ef576126ee61228d565b5b6126fb8482850161268d565b91505092915050565b61270d81612408565b82525050565b60006020820190506127286000830184612704565b92915050565b60006020828403121561274457612743612288565b5b6000612752848285016124de565b91505092915050565b6000806040838503121561277257612771612288565b5b600061278085828601612429565b925050602061279185828601612429565b9150509250929050565b6127a481612317565b81146127af57600080fd5b50565b6000813590506127c18161279b565b92915050565b600080604083850312156127de576127dd612288565b5b60006127ec858286016124de565b92505060206127fd858286016127b2565b9150509250929050565b600067ffffffffffffffff82111561282257612821612590565b5b61282b8261239c565b9050602081019050919050565b600061284b61284684612807565b6125f0565b9050828152602081018484840111156128675761286661258b565b5b61287284828561263c565b509392505050565b600082601f83011261288f5761288e612586565b5b813561289f848260208601612838565b91505092915050565b600080600080608085870312156128c2576128c1612288565b5b60006128d0878288016124de565b94505060206128e1878288016124de565b93505060406128f287828801612429565b925050606085013567ffffffffffffffff8111156129135761291261228d565b5b61291f8782880161287a565b91505092959194509250565b6000806040838503121561294257612941612288565b5b600061295085828601612429565b9250506020612961858286016124de565b9150509250929050565b600081519050919050565b600082825260208201905092915050565b6000819050602082019050919050565b6129a081612408565b82525050565b60006129b28383612997565b60208301905092915050565b6000602082019050919050565b60006129d68261296b565b6129e08185612976565b93506129eb83612987565b8060005b83811015612a1c578151612a0388826129a6565b9750612a0e836129be565b9250506001810190506129ef565b5085935050505092915050565b612a328161248b565b82525050565b600081519050919050565b600082825260208201905092915050565b6000819050602082019050919050565b600082825260208201905092915050565b6000612a808261234d565b612a8a8185612a64565b9350612a9a818560208601612369565b612aa38161239c565b840191505092915050565b6000612aba8383612a75565b905092915050565b6000602082019050919050565b6000612ada82612a38565b612ae48185612a43565b935083602082028501612af685612a54565b8060005b85811015612b325784840389528151612b138582612aae565b9450612b1e83612ac2565b925060208a01995050600181019050612afa565b50829750879550505050505092915050565b60006060830160008301518482036000860152612b6182826129cb565b9150506020830151612b766020860182612a29565b5060408301518482036040860152612b8e8282612acf565b9150508091505092915050565b60006020820190508181036000830152612bb58184612b44565b905092915050565b6000612bc88261246b565b9050919050565b612bd881612bbd565b82525050565b600060e082019050612bf3600083018a612704565b612c006020830189612704565b612c0d6040830188612bcf565b612c1a6060830187612bcf565b612c276080830186612704565b612c3460a0830185612704565b612c4160c0830184612704565b98975050505050505050565b60008060408385031215612c6457612c63612288565b5b6000612c72858286016124de565b9250506020612c83858286016124de565b9150509250929050565b7f4e487b7100000000000000000000000000000000000000000000000000000000600052602260045260246000fd5b60006002820490506001821680612cd457607f821691505b60208210811415612ce857612ce7612c8d565b5b50919050565b7f4552433732313a20617070726f76616c20746f2063757272656e74206f776e6560008201527f7200000000000000000000000000000000000000000000000000000000000000602082015250565b6000612d4a602183612358565b9150612d5582612cee565b604082019050919050565b60006020820190508181036000830152612d7981612d3d565b9050919050565b7f4552433732313a20617070726f76652063616c6c6572206973206e6f7420746f60008201527f6b656e206f776e6572206e6f7220617070726f76656420666f7220616c6c0000602082015250565b6000612ddc603e83612358565b9150612de782612d80565b604082019050919050565b60006020820190508181036000830152612e0b81612dcf565b9050919050565b7f4552433732313a2063616c6c6572206973206e6f7420746f6b656e206f776e6560008201527f72206e6f7220617070726f766564000000000000000000000000000000000000602082015250565b6000612e6e602e83612358565b9150612e7982612e12565b604082019050919050565b60006020820190508181036000830152612e9d81612e61565b9050919050565b7f4552433732313a20696e76616c696420746f6b656e2049440000000000000000600082015250565b6000612eda601883612358565b9150612ee582612ea4565b602082019050919050565b60006020820190508181036000830152612f0981612ecd565b9050919050565b7f4552433732313a2061646472657373207a65726f206973206e6f74206120766160008201527f6c6964206f776e65720000000000000000000000000000000000000000000000602082015250565b6000612f6c602983612358565b9150612f7782612f10565b604082019050919050565b60006020820190508181036000830152612f9b81612f5f565b9050919050565b7f496e737566666963656e742062616c616e636500000000000000000000000000600082015250565b6000612fd8601383612358565b9150612fe382612fa2565b602082019050919050565b6000602082019050818103600083015261300781612fcb565b9050919050565b7f596f7520646f6e2774206861766520656e6f7567682045544800000000000000600082015250565b6000613044601983612358565b915061304f8261300e565b602082019050919050565b6000602082019050818103600083015261307381613037565b9050919050565b600081905092915050565b60006130908261234d565b61309a818561307a565b93506130aa818560208601612369565b80840191505092915050565b60006130c28285613085565b91506130ce8284613085565b91508190509392505050565b7f596f7527726520746865206f776e6572206f662074686973206e667400000000600082015250565b6000613110601c83612358565b915061311b826130da565b602082019050919050565b6000602082019050818103600083015261313f81613103565b9050919050565b7f506c65617365207375626d6974207468652061736b696e67207072696365206960008201527f6e206f7264657220746f20636f6d706c65746520746865207075726368617365602082015250565b60006131a2604083612358565b91506131ad82613146565b604082019050919050565b600060208201905081810360008301526131d181613195565b9050919050565b60006060820190506131ed600083018661249d565b6131fa602083018561249d565b6132076040830184612704565b949350505050565b7f4552433732313a207472616e736665722066726f6d20696e636f72726563742060008201527f6f776e6572000000000000000000000000000000000000000000000000000000602082015250565b600061326b602583612358565b91506132768261320f565b604082019050919050565b6000602082019050818103600083015261329a8161325e565b9050919050565b7f4552433732313a207472616e7366657220746f20746865207a65726f2061646460008201527f7265737300000000000000000000000000000000000000000000000000000000602082015250565b60006132fd602483612358565b9150613308826132a1565b604082019050919050565b6000602082019050818103600083015261332c816132f0565b9050919050565b7f4e487b7100000000000000000000000000000000000000000000000000000000600052601160045260246000fd5b600061336d82612408565b915061337883612408565b92508282101561338b5761338a613333565b5b828203905092915050565b60006133a182612408565b91506133ac83612408565b9250827fffffffffffffffffffffffffffffffffffffffffffffffffffffffffffffffff038211156133e1576133e0613333565b5b828201905092915050565b7f45524337323155524953746f726167653a2055524920736574206f66206e6f6e60008201527f6578697374656e7420746f6b656e000000000000000000000000000000000000602082015250565b6000613448602e83612358565b9150613453826133ec565b604082019050919050565b600060208201905081810360008301526134778161343b565b9050919050565b7f4552433732313a20617070726f766520746f2063616c6c657200000000000000600082015250565b60006134b4601983612358565b91506134bf8261347e565b602082019050919050565b600060208201905081810360008301526134e3816134a7565b9050919050565b7f4552433732313a207472616e7366657220746f206e6f6e20455243373231526560008201527f63656976657220696d706c656d656e7465720000000000000000000000000000602082015250565b6000613546603283612358565b9150613551826134ea565b604082019050919050565b6000602082019050818103600083015261357581613539565b9050919050565b600081519050919050565b600082825260208201905092915050565b60006135a38261357c565b6135ad8185613587565b93506135bd818560208601612369565b6135c68161239c565b840191505092915050565b60006080820190506135e6600083018761249d565b6135f3602083018661249d565b6136006040830185612704565b81810360608301526136128184613598565b905095945050505050565b60008151905061362c816122be565b92915050565b60006020828403121561364857613647612288565b5b60006136568482850161361d565b91505092915050565b600061366a82612408565b91507fffffffffffffffffffffffffffffffffffffffffffffffffffffffffffffffff82141561369d5761369c613333565b5b600182019050919050565b7f4e487b7100000000000000000000000000000000000000000000000000000000600052601260045260246000fd5b60006136e282612408565b91506136ed83612408565b9250826136fd576136fc6136a8565b5b828204905092915050565b600061371382612408565b915061371e83612408565b92508261372e5761372d6136a8565b5b828206905092915050565b7f4e487b7100000000000000000000000000000000000000000000000000000000600052603260045260246000fd5b7f4552433732313a206d696e7420746f20746865207a65726f2061646472657373600082015250565b600061379e602083612358565b91506137a982613768565b602082019050919050565b600060208201905081810360008301526137cd81613791565b9050919050565b7f4552433732313a20746f6b656e20616c7265616479206d696e74656400000000600082015250565b600061380a601c83612358565b9150613815826137d4565b602082019050919050565b60006020820190508181036000830152613839816137fd565b905091905056fea26469706673582212208ee3315605353a9e303683e3018a14142141c635692e683caf677971c1b25c1064736f6c63430008090033",
  "linkReferences": {},
  "deployedLinkReferences": {}
}