{
  "_format": "hh-sol-artifact-1",
  "contractName": "NFTCollection",
  "sourceName": "contracts/NFTCollection.sol",
  "abi": [
    {
      "inputs": [],
      "stateMutability": "nonpayable",
      "type": "constructor"
    },
    {
      "anonymous": false,
      "inputs": [
        {
          "indexed": true,
          "internalType": "address",
          "name": "owner",
          "type": "address"
        },
        {
          "indexed": true,
          "internalType": "address",
          "name": "approved",
          "type": "address"
        },
        {
          "indexed": true,
          "internalType": "uint256",
          "name": "tokenId",
          "type": "uint256"
        }
      ],
      "name": "Approval",
      "type": "event"
    },
    {
      "anonymous": false,
      "inputs": [
        {
          "indexed": true,
          "internalType": "address",
          "name": "owner",
          "type": "address"
        },
        {
          "indexed": true,
          "internalType": "address",
          "name": "operator",
          "type": "address"
        },
        {
          "indexed": false,
          "internalType": "bool",
          "name": "approved",
          "type": "bool"
        }
      ],
      "name": "ApprovalForAll",
      "type": "event"
    },
    {
      "anonymous": false,
      "inputs": [
        {
          "indexed": true,
          "internalType": "address",
          "name": "from",
          "type": "address"
        },
        {
          "indexed": true,
          "internalType": "address",
          "name": "to",
          "type": "address"
        },
        {
          "indexed": true,
          "internalType": "uint256",
          "name": "tokenId",
          "type": "uint256"
        }
      ],
      "name": "Transfer",
      "type": "event"
    },
    {
      "inputs": [
        {
          "internalType": "uint256",
          "name": "",
          "type": "uint256"
        }
      ],
      "name": "Exchange",
      "outputs": [
        {
          "internalType": "uint256",
          "name": "tokenId",
          "type": "uint256"
        },
        {
          "internalType": "address",
          "name": "seller",
          "type": "address"
        },
        {
          "internalType": "address",
          "name": "owner",
          "type": "address"
        },
        {
          "internalType": "uint256",
          "name": "price",
          "type": "uint256"
        },
        {
          "internalType": "uint256",
          "name": "lastTransactionDate",
          "type": "uint256"
        },
        {
          "internalType": "bool",
          "name": "listed",
          "type": "bool"
        },
        {
          "internalType": "uint256",
          "name": "start_time",
          "type": "uint256"
        },
        {
          "internalType": "bool",
          "name": "inAunction",
          "type": "bool"
        },
        {
          "internalType": "uint256",
          "name": "currentHighestBid",
          "type": "uint256"
        },
        {
          "internalType": "address",
          "name": "currentHighestBidder",
          "type": "address"
        },
        {
          "internalType": "bool",
          "name": "offered",
          "type": "bool"
        }
      ],
      "stateMutability": "view",
      "type": "function"
    },
    {
      "inputs": [
        {
          "internalType": "address",
          "name": "to",
          "type": "address"
        },
        {
          "internalType": "uint256",
          "name": "tokenId",
          "type": "uint256"
        }
      ],
      "name": "approve",
      "outputs": [],
      "stateMutability": "nonpayable",
      "type": "function"
    },
    {
      "inputs": [
        {
          "internalType": "uint256",
          "name": "_tokenId",
          "type": "uint256"
        },
        {
          "internalType": "uint256",
          "name": "_listingPrice",
          "type": "uint256"
        }
      ],
      "name": "auctionNFT",
      "outputs": [],
      "stateMutability": "payable",
      "type": "function"
    },
    {
      "inputs": [
        {
          "internalType": "address",
          "name": "owner",
          "type": "address"
        }
      ],
      "name": "balanceOf",
      "outputs": [
        {
          "internalType": "uint256",
          "name": "",
          "type": "uint256"
        }
      ],
      "stateMutability": "view",
      "type": "function"
    },
    {
      "inputs": [
        {
          "internalType": "uint256",
          "name": "_tokenId",
          "type": "uint256"
        },
        {
          "internalType": "uint256",
          "name": "_bidPrice",
          "type": "uint256"
        }
      ],
      "name": "bidNFT",
      "outputs": [],
      "stateMutability": "payable",
      "type": "function"
    },
    {
      "inputs": [
        {
          "internalType": "string",
          "name": "_tokenURI",
          "type": "string"
        }
      ],
      "name": "createToken",
      "outputs": [],
      "stateMutability": "nonpayable",
      "type": "function"
    },
    {
      "inputs": [
        {
          "internalType": "uint256",
          "name": "_tokenId",
          "type": "uint256"
        }
      ],
      "name": "endAuction",
      "outputs": [],
      "stateMutability": "payable",
      "type": "function"
    },
    {
      "inputs": [
        {
          "internalType": "uint256",
          "name": "_tokenId",
          "type": "uint256"
        }
      ],
      "name": "endOffer",
      "outputs": [],
      "stateMutability": "payable",
      "type": "function"
    },
    {
      "inputs": [
        {
          "internalType": "uint256",
          "name": "tokenId",
          "type": "uint256"
        }
      ],
      "name": "getApproved",
      "outputs": [
        {
          "internalType": "address",
          "name": "",
          "type": "address"
        }
      ],
      "stateMutability": "view",
      "type": "function"
    },
    {
      "inputs": [
        {
          "internalType": "address",
          "name": "owner",
          "type": "address"
        },
        {
          "internalType": "address",
          "name": "operator",
          "type": "address"
        }
      ],
      "name": "isApprovedForAll",
      "outputs": [
        {
          "internalType": "bool",
          "name": "",
          "type": "bool"
        }
      ],
      "stateMutability": "view",
      "type": "function"
    },
    {
      "inputs": [
        {
          "internalType": "uint256",
          "name": "_tokenId",
          "type": "uint256"
        },
        {
          "internalType": "uint256",
          "name": "_listingPrice",
          "type": "uint256"
        }
      ],
      "name": "listNFT",
      "outputs": [],
      "stateMutability": "payable",
      "type": "function"
    },
    {
      "inputs": [
        {
          "internalType": "uint256",
          "name": "_tokenId",
          "type": "uint256"
        },
        {
          "internalType": "uint256",
          "name": "_offerPrice",
          "type": "uint256"
        }
      ],
      "name": "makeOffer",
      "outputs": [],
      "stateMutability": "payable",
      "type": "function"
    },
    {
      "inputs": [
        {
          "internalType": "address",
          "name": "_address",
          "type": "address"
        }
      ],
      "name": "myTokens",
      "outputs": [
        {
          "components": [
            {
              "internalType": "uint256[]",
              "name": "userTokens",
              "type": "uint256[]"
            },
            {
              "internalType": "address",
              "name": "creator",
              "type": "address"
            },
            {
              "internalType": "string[]",
              "name": "tokenURI",
              "type": "string[]"
            }
          ],
          "internalType": "struct NFTCollection.Token",
          "name": "",
          "type": "tuple"
        }
      ],
      "stateMutability": "view",
      "type": "function"
    },
    {
      "inputs": [],
      "name": "name",
      "outputs": [
        {
          "internalType": "string",
          "name": "",
          "type": "string"
        }
      ],
      "stateMutability": "view",
      "type": "function"
    },
    {
      "inputs": [
        {
          "internalType": "uint256",
          "name": "tokenId",
          "type": "uint256"
        }
      ],
      "name": "ownerOf",
      "outputs": [
        {
          "internalType": "address",
          "name": "",
          "type": "address"
        }
      ],
      "stateMutability": "view",
      "type": "function"
    },
    {
      "inputs": [
        {
          "internalType": "address",
          "name": "from",
          "type": "address"
        },
        {
          "internalType": "address",
          "name": "to",
          "type": "address"
        },
        {
          "internalType": "uint256",
          "name": "tokenId",
          "type": "uint256"
        }
      ],
      "name": "safeTransferFrom",
      "outputs": [],
      "stateMutability": "nonpayable",
      "type": "function"
    },
    {
      "inputs": [
        {
          "internalType": "address",
          "name": "from",
          "type": "address"
        },
        {
          "internalType": "address",
          "name": "to",
          "type": "address"
        },
        {
          "internalType": "uint256",
          "name": "tokenId",
          "type": "uint256"
        },
        {
          "internalType": "bytes",
          "name": "data",
          "type": "bytes"
        }
      ],
      "name": "safeTransferFrom",
      "outputs": [],
      "stateMutability": "nonpayable",
      "type": "function"
    },
    {
      "inputs": [
        {
          "internalType": "address",
          "name": "operator",
          "type": "address"
        },
        {
          "internalType": "bool",
          "name": "approved",
          "type": "bool"
        }
      ],
      "name": "setApprovalForAll",
      "outputs": [],
      "stateMutability": "nonpayable",
      "type": "function"
    },
    {
      "inputs": [
        {
          "internalType": "bytes4",
          "name": "interfaceId",
          "type": "bytes4"
        }
      ],
      "name": "supportsInterface",
      "outputs": [
        {
          "internalType": "bool",
          "name": "",
          "type": "bool"
        }
      ],
      "stateMutability": "view",
      "type": "function"
    },
    {
      "inputs": [],
      "name": "symbol",
      "outputs": [
        {
          "internalType": "string",
          "name": "",
          "type": "string"
        }
      ],
      "stateMutability": "view",
      "type": "function"
    },
    {
      "inputs": [
        {
          "internalType": "uint256",
          "name": "_tokenId",
          "type": "uint256"
        }
      ],
      "name": "tokenBalance",
      "outputs": [
        {
          "internalType": "uint256",
          "name": "",
          "type": "uint256"
        }
      ],
      "stateMutability": "view",
      "type": "function"
    },
    {
      "inputs": [
        {
          "internalType": "uint256",
          "name": "tokenId",
          "type": "uint256"
        }
      ],
      "name": "tokenURI",
      "outputs": [
        {
          "internalType": "string",
          "name": "",
          "type": "string"
        }
      ],
      "stateMutability": "view",
      "type": "function"
    },
    {
      "inputs": [
        {
          "internalType": "address",
          "name": "from",
          "type": "address"
        },
        {
          "internalType": "address",
          "name": "to",
          "type": "address"
        },
        {
          "internalType": "uint256",
          "name": "tokenId",
          "type": "uint256"
        }
      ],
      "name": "transferFrom",
      "outputs": [],
      "stateMutability": "nonpayable",
      "type": "function"
    }
  ],
  "bytecode": "0x6080604052603c600b553480156200001657600080fd5b506040518060400160405280600e81526020017f4e465420436f6c6c656374696f6e0000000000000000000000000000000000008152506040518060400160405280600481526020017f4e4654430000000000000000000000000000000000000000000000000000000081525081600090805190602001906200009b929190620000bd565b508060019080519060200190620000b4929190620000bd565b505050620001d2565b828054620000cb906200019c565b90600052602060002090601f016020900481019282620000ef57600085556200013b565b82601f106200010a57805160ff19168380011785556200013b565b828001600101855582156200013b579182015b828111156200013a5782518255916020019190600101906200011d565b5b5090506200014a91906200014e565b5090565b5b80821115620001695760008160009055506001016200014f565b5090565b7f4e487b7100000000000000000000000000000000000000000000000000000000600052602260045260246000fd5b60006002820490506001821680620001b557607f821691505b60208210811415620001cc57620001cb6200016d565b5b50919050565b614da880620001e26000396000f3fe6080604052600436106101405760003560e01c806345576f94116100b6578063a22cb4651161006f578063a22cb46514610443578063b88d4fde1461046c578063b9a2de3a14610495578063c87b56dd146104b1578063dc1df3f6146104ee578063e985e9c51461052b57610140565b806345576f941461031c57806349afc6e5146103455780636352211e1461038257806370a08231146103bf57806394383f14146103fc57806395d89b411461041857610140565b8063081812fc11610108578063081812fc14610201578063095ea7b31461023e578063102389ed1461026757806311d92a081461028357806323b872dd146102ca57806342842e0e146102f357610140565b806301ffc9a7146101455780630551997114610182578063058340581461019e57806305b7cdd3146101ba57806306fdde03146101d6575b600080fd5b34801561015157600080fd5b5061016c60048036038101906101679190613342565b610568565b604051610179919061338a565b60405180910390f35b61019c600480360381019061019791906133db565b61064a565b005b6101b860048036038101906101b3919061341b565b610a38565b005b6101d460048036038101906101cf91906133db565b610e25565b005b3480156101e257600080fd5b506101eb6111c7565b6040516101f891906134e1565b60405180910390f35b34801561020d57600080fd5b506102286004803603810190610223919061341b565b611259565b6040516102359190613544565b60405180910390f35b34801561024a57600080fd5b506102656004803603810190610260919061358b565b61129f565b005b610281600480360381019061027c91906133db565b6113b7565b005b34801561028f57600080fd5b506102aa60048036038101906102a5919061341b565b611686565b6040516102c19b9a999897969594939291906135da565b60405180910390f35b3480156102d657600080fd5b506102f160048036038101906102ec9190613685565b611767565b005b3480156102ff57600080fd5b5061031a60048036038101906103159190613685565b6117c7565b005b34801561032857600080fd5b50610343600480360381019061033e919061380d565b6117e7565b005b34801561035157600080fd5b5061036c6004803603810190610367919061341b565b611912565b6040516103799190613856565b60405180910390f35b34801561038e57600080fd5b506103a960048036038101906103a4919061341b565b611932565b6040516103b69190613544565b60405180910390f35b3480156103cb57600080fd5b506103e660048036038101906103e19190613871565b6119e4565b6040516103f39190613856565b60405180910390f35b610416600480360381019061041191906133db565b611a9c565b005b34801561042457600080fd5b5061042d611c96565b60405161043a91906134e1565b60405180910390f35b34801561044f57600080fd5b5061046a600480360381019061046591906138ca565b611d28565b005b34801561047857600080fd5b50610493600480360381019061048e91906139ab565b611d3e565b005b6104af60048036038101906104aa919061341b565b611da0565b005b3480156104bd57600080fd5b506104d860048036038101906104d3919061341b565b61213f565b6040516104e591906134e1565b60405180910390f35b3480156104fa57600080fd5b5061051560048036038101906105109190613871565b612252565b6040516105229190613c5e565b60405180910390f35b34801561053757600080fd5b50610552600480360381019061054d9190613c80565b612432565b60405161055f919061338a565b60405180910390f35b60007f80ac58cd000000000000000000000000000000000000000000000000000000007bffffffffffffffffffffffffffffffffffffffffffffffffffffffff1916827bffffffffffffffffffffffffffffffffffffffffffffffffffffffff1916148061063357507f5b5e139f000000000000000000000000000000000000000000000000000000007bffffffffffffffffffffffffffffffffffffffffffffffffffffffff1916827bffffffffffffffffffffffffffffffffffffffffffffffffffffffff1916145b806106435750610642826124c6565b5b9050919050565b3373ffffffffffffffffffffffffffffffffffffffff1661066a83611932565b73ffffffffffffffffffffffffffffffffffffffff1614156106c1576040517f08c379a00000000000000000000000000000000000000000000000000000000081526004016106b890613d0c565b60405180910390fd5b6000600a600084815260200190815260200160002090508060020160009054906101000a900473ffffffffffffffffffffffffffffffffffffffff1673ffffffffffffffffffffffffffffffffffffffff163373ffffffffffffffffffffffffffffffffffffffff16141561076b576040517f08c379a000000000000000000000000000000000000000000000000000000000815260040161076290613d78565b60405180910390fd5b600073ffffffffffffffffffffffffffffffffffffffff163373ffffffffffffffffffffffffffffffffffffffff1614156107db576040517f08c379a00000000000000000000000000000000000000000000000000000000081526004016107d290613de4565b60405180910390fd5b8134101561081e576040517f08c379a000000000000000000000000000000000000000000000000000000000815260040161081590613e50565b60405180910390fd5b8060070160009054906101000a900460ff1661086f576040517f08c379a000000000000000000000000000000000000000000000000000000000815260040161086690613ebc565b60405180910390fd5b80600801543410156108b6576040517f08c379a00000000000000000000000000000000000000000000000000000000081526004016108ad90613f4e565b60405180910390fd5b8060020160009054906101000a900473ffffffffffffffffffffffffffffffffffffffff1673ffffffffffffffffffffffffffffffffffffffff168160090160009054906101000a900473ffffffffffffffffffffffffffffffffffffffff1673ffffffffffffffffffffffffffffffffffffffff16146109e75780600801544711610977576040517f08c379a000000000000000000000000000000000000000000000000000000000815260040161096e90613fba565b60405180910390fd5b8060090160009054906101000a900473ffffffffffffffffffffffffffffffffffffffff1673ffffffffffffffffffffffffffffffffffffffff166108fc82600801549081150290604051600060405180830381858888f193505050501580156109e5573d6000803e3d6000fd5b505b338160090160006101000a81548173ffffffffffffffffffffffffffffffffffffffff021916908373ffffffffffffffffffffffffffffffffffffffff160217905550348160080181905550505050565b3373ffffffffffffffffffffffffffffffffffffffff16610a5882611932565b73ffffffffffffffffffffffffffffffffffffffff161415610aaf576040517f08c379a0000000000000000000000000000000000000000000000000000000008152600401610aa690613de4565b60405180910390fd5b600073ffffffffffffffffffffffffffffffffffffffff163373ffffffffffffffffffffffffffffffffffffffff161415610b1f576040517f08c379a0000000000000000000000000000000000000000000000000000000008152600401610b1690613de4565b60405180910390fd5b6000600a60008381526020019081526020016000209050600115158160090160149054906101000a900460ff16151514610b8e576040517f08c379a0000000000000000000000000000000000000000000000000000000008152600401610b8590614026565b60405180910390fd5b3373ffffffffffffffffffffffffffffffffffffffff168160020160009054906101000a900473ffffffffffffffffffffffffffffffffffffffff1673ffffffffffffffffffffffffffffffffffffffff1614610c20576040517f08c379a0000000000000000000000000000000000000000000000000000000008152600401610c1790614092565b60405180910390fd5b8060020160009054906101000a900473ffffffffffffffffffffffffffffffffffffffff1673ffffffffffffffffffffffffffffffffffffffff168160090160009054906101000a900473ffffffffffffffffffffffffffffffffffffffff1673ffffffffffffffffffffffffffffffffffffffff1614610d515780600801544711610ce1576040517f08c379a0000000000000000000000000000000000000000000000000000000008152600401610cd890613fba565b60405180910390fd5b8060020160009054906101000a900473ffffffffffffffffffffffffffffffffffffffff1673ffffffffffffffffffffffffffffffffffffffff166108fc82600801549081150290604051600060405180830381858888f19350505050158015610d4f573d6000803e3d6000fd5b505b60008160090160146101000a81548160ff02191690831515021790555060008160050160006101000a81548160ff0219169083151502179055508060090160009054906101000a900473ffffffffffffffffffffffffffffffffffffffff168160020160006101000a81548173ffffffffffffffffffffffffffffffffffffffff021916908373ffffffffffffffffffffffffffffffffffffffff160217905550610e21308260090160009054906101000a900473ffffffffffffffffffffffffffffffffffffffff1684612530565b5050565b3373ffffffffffffffffffffffffffffffffffffffff16610e4583611932565b73ffffffffffffffffffffffffffffffffffffffff161415610e9c576040517f08c379a0000000000000000000000000000000000000000000000000000000008152600401610e9390613de4565b60405180910390fd5b6000600a600084815260200190815260200160002090508060020160009054906101000a900473ffffffffffffffffffffffffffffffffffffffff1673ffffffffffffffffffffffffffffffffffffffff163373ffffffffffffffffffffffffffffffffffffffff161415610f46576040517f08c379a0000000000000000000000000000000000000000000000000000000008152600401610f3d90613d78565b60405180910390fd5b81341015610f89576040517f08c379a0000000000000000000000000000000000000000000000000000000008152600401610f80906140fe565b60405180910390fd5b600115158160050160009054906101000a900460ff16151514610fe1576040517f08c379a0000000000000000000000000000000000000000000000000000000008152600401610fd89061416a565b60405180910390fd5b8060080154341015611028576040517f08c379a000000000000000000000000000000000000000000000000000000000815260040161101f906141fc565b60405180910390fd5b8060020160009054906101000a900473ffffffffffffffffffffffffffffffffffffffff1673ffffffffffffffffffffffffffffffffffffffff168160090160009054906101000a900473ffffffffffffffffffffffffffffffffffffffff1673ffffffffffffffffffffffffffffffffffffffff161461115957806008015447116110e9576040517f08c379a00000000000000000000000000000000000000000000000000000000081526004016110e090613fba565b60405180910390fd5b8060090160009054906101000a900473ffffffffffffffffffffffffffffffffffffffff1673ffffffffffffffffffffffffffffffffffffffff166108fc82600801549081150290604051600060405180830381858888f19350505050158015611157573d6000803e3d6000fd5b505b338160090160006101000a81548173ffffffffffffffffffffffffffffffffffffffff021916908373ffffffffffffffffffffffffffffffffffffffff16021790555034816008018190555060018160090160146101000a81548160ff021916908315150217905550505050565b6060600080546111d69061424b565b80601f01602080910402602001604051908101604052809291908181526020018280546112029061424b565b801561124f5780601f106112245761010080835404028352916020019161124f565b820191906000526020600020905b81548152906001019060200180831161123257829003601f168201915b5050505050905090565b600061126482612797565b6004600083815260200190815260200160002060009054906101000a900473ffffffffffffffffffffffffffffffffffffffff169050919050565b60006112aa82611932565b90508073ffffffffffffffffffffffffffffffffffffffff168373ffffffffffffffffffffffffffffffffffffffff16141561131b576040517f08c379a0000000000000000000000000000000000000000000000000000000008152600401611312906142ef565b60405180910390fd5b8073ffffffffffffffffffffffffffffffffffffffff1661133a6127e2565b73ffffffffffffffffffffffffffffffffffffffff1614806113695750611368816113636127e2565b612432565b5b6113a8576040517f08c379a000000000000000000000000000000000000000000000000000000000815260040161139f90614381565b60405180910390fd5b6113b283836127ea565b505050565b3373ffffffffffffffffffffffffffffffffffffffff166113d783611932565b73ffffffffffffffffffffffffffffffffffffffff161461142d576040517f08c379a000000000000000000000000000000000000000000000000000000000815260040161142490613de4565b60405180910390fd5b600073ffffffffffffffffffffffffffffffffffffffff163373ffffffffffffffffffffffffffffffffffffffff16141561149d576040517f08c379a000000000000000000000000000000000000000000000000000000000815260040161149490613de4565b60405180910390fd5b803410156114e0576040517f08c379a00000000000000000000000000000000000000000000000000000000081526004016114d7906143ed565b60405180910390fd5b60011515600a600084815260200190815260200160002060050160009054906101000a900460ff161515141561154b576040517f08c379a000000000000000000000000000000000000000000000000000000000815260040161154290614459565b60405180910390fd5b6000600a6000848152602001908152602001600020905060018160070160006101000a81548160ff021916908315150217905550828160000181905550338160020160006101000a81548173ffffffffffffffffffffffffffffffffffffffff021916908373ffffffffffffffffffffffffffffffffffffffff160217905550338160090160006101000a81548173ffffffffffffffffffffffffffffffffffffffff021916908373ffffffffffffffffffffffffffffffffffffffff160217905550348160080181905550338160010160006101000a81548173ffffffffffffffffffffffffffffffffffffffff021916908373ffffffffffffffffffffffffffffffffffffffff160217905550818160030181905550428160060181905550611677333085612530565b61168160086128a3565b505050565b600a6020528060005260406000206000915090508060000154908060010160009054906101000a900473ffffffffffffffffffffffffffffffffffffffff16908060020160009054906101000a900473ffffffffffffffffffffffffffffffffffffffff16908060030154908060040154908060050160009054906101000a900460ff16908060060154908060070160009054906101000a900460ff16908060080154908060090160009054906101000a900473ffffffffffffffffffffffffffffffffffffffff16908060090160149054906101000a900460ff1690508b565b6117786117726127e2565b826128b9565b6117b7576040517f08c379a00000000000000000000000000000000000000000000000000000000081526004016117ae906144eb565b60405180910390fd5b6117c2838383612530565b505050565b6117e283838360405180602001604052806000815250611d3e565b505050565b60006117f3600761294e565b90506117ff338261295c565b611809818361297a565b61181360076128a3565b61181e306001611d28565b6000600960003373ffffffffffffffffffffffffffffffffffffffff1673ffffffffffffffffffffffffffffffffffffffff168152602001908152602001600020905080600001829080600181540180825580915050600190039060005260206000200160009091909190915055338160010160006101000a81548173ffffffffffffffffffffffffffffffffffffffff021916908373ffffffffffffffffffffffffffffffffffffffff160217905550806002018390806001815401808255809150506001900390600052602060002001600090919091909150908051906020019061190c9291906131fc565b50505050565b6000600a6000838152602001908152602001600020600801549050919050565b6000806002600084815260200190815260200160002060009054906101000a900473ffffffffffffffffffffffffffffffffffffffff169050600073ffffffffffffffffffffffffffffffffffffffff168173ffffffffffffffffffffffffffffffffffffffff1614156119db576040517f08c379a00000000000000000000000000000000000000000000000000000000081526004016119d290614557565b60405180910390fd5b80915050919050565b60008073ffffffffffffffffffffffffffffffffffffffff168273ffffffffffffffffffffffffffffffffffffffff161415611a55576040517f08c379a0000000000000000000000000000000000000000000000000000000008152600401611a4c906145e9565b60405180910390fd5b600360008373ffffffffffffffffffffffffffffffffffffffff1673ffffffffffffffffffffffffffffffffffffffff168152602001908152602001600020549050919050565b3373ffffffffffffffffffffffffffffffffffffffff16611abc83611932565b73ffffffffffffffffffffffffffffffffffffffff1614611b12576040517f08c379a0000000000000000000000000000000000000000000000000000000008152600401611b0990613de4565b60405180910390fd5b60008111611b55576040517f08c379a0000000000000000000000000000000000000000000000000000000008152600401611b4c90614655565b60405180910390fd5b80341015611b98576040517f08c379a0000000000000000000000000000000000000000000000000000000008152600401611b8f906146c1565b60405180910390fd5b6000611ba4600861294e565b90506000600a60008581526020019081526020016000209050818160000181905550338160010160006101000a81548173ffffffffffffffffffffffffffffffffffffffff021916908373ffffffffffffffffffffffffffffffffffffffff160217905550338160020160006101000a81548173ffffffffffffffffffffffffffffffffffffffff021916908373ffffffffffffffffffffffffffffffffffffffff16021790555082816003018190555042816004018190555060018160050160006101000a81548160ff021916908315150217905550611c86333086612530565b611c9060086128a3565b50505050565b606060018054611ca59061424b565b80601f0160208091040260200160405190810160405280929190818152602001828054611cd19061424b565b8015611d1e5780601f10611cf357610100808354040283529160200191611d1e565b820191906000526020600020905b815481529060010190602001808311611d0157829003601f168201915b5050505050905090565b611d3a611d336127e2565b83836129ee565b5050565b611d4f611d496127e2565b836128b9565b611d8e576040517f08c379a0000000000000000000000000000000000000000000000000000000008152600401611d85906144eb565b60405180910390fd5b611d9a84848484612b5b565b50505050565b3373ffffffffffffffffffffffffffffffffffffffff16611dc082611932565b73ffffffffffffffffffffffffffffffffffffffff161415611e17576040517f08c379a0000000000000000000000000000000000000000000000000000000008152600401611e0e90613de4565b60405180910390fd5b600073ffffffffffffffffffffffffffffffffffffffff163373ffffffffffffffffffffffffffffffffffffffff161415611e87576040517f08c379a0000000000000000000000000000000000000000000000000000000008152600401611e7e90613de4565b60405180910390fd5b6000600a600083815260200190815260200160002090503373ffffffffffffffffffffffffffffffffffffffff168160020160009054906101000a900473ffffffffffffffffffffffffffffffffffffffff1673ffffffffffffffffffffffffffffffffffffffff1614611f30576040517f08c379a0000000000000000000000000000000000000000000000000000000008152600401611f2790614092565b60405180910390fd5b8060020160009054906101000a900473ffffffffffffffffffffffffffffffffffffffff1673ffffffffffffffffffffffffffffffffffffffff168160090160009054906101000a900473ffffffffffffffffffffffffffffffffffffffff1673ffffffffffffffffffffffffffffffffffffffff16146120c85780600801544711611ff1576040517f08c379a0000000000000000000000000000000000000000000000000000000008152600401611fe890613fba565b60405180910390fd5b8060020160009054906101000a900473ffffffffffffffffffffffffffffffffffffffff1673ffffffffffffffffffffffffffffffffffffffff166108fc82600801549081150290604051600060405180830381858888f1935050505015801561205f573d6000803e3d6000fd5b508060090160009054906101000a900473ffffffffffffffffffffffffffffffffffffffff168160020160006101000a81548173ffffffffffffffffffffffffffffffffffffffff021916908373ffffffffffffffffffffffffffffffffffffffff1602179055505b60008160050160006101000a81548160ff0219169083151502179055506000816008018190555060008160070160006101000a81548160ff02191690831515021790555061213b308260090160009054906101000a900473ffffffffffffffffffffffffffffffffffffffff1684612530565b5050565b606061214a82612797565b600060066000848152602001908152602001600020805461216a9061424b565b80601f01602080910402602001604051908101604052809291908181526020018280546121969061424b565b80156121e35780601f106121b8576101008083540402835291602001916121e3565b820191906000526020600020905b8154815290600101906020018083116121c657829003601f168201915b5050505050905060006121f4612bb7565b905060008151141561220a57819250505061224d565b60008251111561223f57808260405160200161222792919061471d565b6040516020818303038152906040529250505061224d565b61224884612bce565b925050505b919050565b61225a613282565b600960008373ffffffffffffffffffffffffffffffffffffffff1673ffffffffffffffffffffffffffffffffffffffff168152602001908152602001600020604051806060016040529081600082018054806020026020016040519081016040528092919081815260200182805480156122f357602002820191906000526020600020905b8154815260200190600101908083116122df575b505050505081526020016001820160009054906101000a900473ffffffffffffffffffffffffffffffffffffffff1673ffffffffffffffffffffffffffffffffffffffff1673ffffffffffffffffffffffffffffffffffffffff16815260200160028201805480602002602001604051908101604052809291908181526020016000905b828210156124235783829060005260206000200180546123969061424b565b80601f01602080910402602001604051908101604052809291908181526020018280546123c29061424b565b801561240f5780601f106123e45761010080835404028352916020019161240f565b820191906000526020600020905b8154815290600101906020018083116123f257829003601f168201915b505050505081526020019060010190612377565b50505050815250509050919050565b6000600560008473ffffffffffffffffffffffffffffffffffffffff1673ffffffffffffffffffffffffffffffffffffffff16815260200190815260200160002060008373ffffffffffffffffffffffffffffffffffffffff1673ffffffffffffffffffffffffffffffffffffffff16815260200190815260200160002060009054906101000a900460ff16905092915050565b60007f01ffc9a7000000000000000000000000000000000000000000000000000000007bffffffffffffffffffffffffffffffffffffffffffffffffffffffff1916827bffffffffffffffffffffffffffffffffffffffffffffffffffffffff1916149050919050565b8273ffffffffffffffffffffffffffffffffffffffff1661255082611932565b73ffffffffffffffffffffffffffffffffffffffff16146125a6576040517f08c379a000000000000000000000000000000000000000000000000000000000815260040161259d906147b3565b60405180910390fd5b600073ffffffffffffffffffffffffffffffffffffffff168273ffffffffffffffffffffffffffffffffffffffff161415612616576040517f08c379a000000000000000000000000000000000000000000000000000000000815260040161260d90614845565b60405180910390fd5b612621838383612c36565b61262c6000826127ea565b6001600360008573ffffffffffffffffffffffffffffffffffffffff1673ffffffffffffffffffffffffffffffffffffffff168152602001908152602001600020600082825461267c9190614894565b925050819055506001600360008473ffffffffffffffffffffffffffffffffffffffff1673ffffffffffffffffffffffffffffffffffffffff16815260200190815260200160002060008282546126d391906148c8565b92505081905550816002600083815260200190815260200160002060006101000a81548173ffffffffffffffffffffffffffffffffffffffff021916908373ffffffffffffffffffffffffffffffffffffffff160217905550808273ffffffffffffffffffffffffffffffffffffffff168473ffffffffffffffffffffffffffffffffffffffff167fddf252ad1be2c89b69c2b068fc378daa952ba7f163c4a11628f55a4df523b3ef60405160405180910390a4612792838383612c3b565b505050565b6127a081612c40565b6127df576040517f08c379a00000000000000000000000000000000000000000000000000000000081526004016127d690614557565b60405180910390fd5b50565b600033905090565b816004600083815260200190815260200160002060006101000a81548173ffffffffffffffffffffffffffffffffffffffff021916908373ffffffffffffffffffffffffffffffffffffffff160217905550808273ffffffffffffffffffffffffffffffffffffffff1661285d83611932565b73ffffffffffffffffffffffffffffffffffffffff167f8c5be1e5ebec7d5bd14f71427d1e84f3dd0314c0f7b2291e5b200ac8c7c3b92560405160405180910390a45050565b6001816000016000828254019250508190555050565b6000806128c583611932565b90508073ffffffffffffffffffffffffffffffffffffffff168473ffffffffffffffffffffffffffffffffffffffff16148061290757506129068185612432565b5b8061294557508373ffffffffffffffffffffffffffffffffffffffff1661292d84611259565b73ffffffffffffffffffffffffffffffffffffffff16145b91505092915050565b600081600001549050919050565b612976828260405180602001604052806000815250612cac565b5050565b61298382612c40565b6129c2576040517f08c379a00000000000000000000000000000000000000000000000000000000081526004016129b990614990565b60405180910390fd5b806006600084815260200190815260200160002090805190602001906129e99291906131fc565b505050565b8173ffffffffffffffffffffffffffffffffffffffff168373ffffffffffffffffffffffffffffffffffffffff161415612a5d576040517f08c379a0000000000000000000000000000000000000000000000000000000008152600401612a54906149fc565b60405180910390fd5b80600560008573ffffffffffffffffffffffffffffffffffffffff1673ffffffffffffffffffffffffffffffffffffffff16815260200190815260200160002060008473ffffffffffffffffffffffffffffffffffffffff1673ffffffffffffffffffffffffffffffffffffffff16815260200190815260200160002060006101000a81548160ff0219169083151502179055508173ffffffffffffffffffffffffffffffffffffffff168373ffffffffffffffffffffffffffffffffffffffff167f17307eab39ab6107e8899845ad3d59bd9653f200f220920489ca2b5937696c3183604051612b4e919061338a565b60405180910390a3505050565b612b66848484612530565b612b7284848484612d07565b612bb1576040517f08c379a0000000000000000000000000000000000000000000000000000000008152600401612ba890614a8e565b60405180910390fd5b50505050565b606060405180602001604052806000815250905090565b6060612bd982612797565b6000612be3612bb7565b90506000815111612c035760405180602001604052806000815250612c2e565b80612c0d84612e9e565b604051602001612c1e92919061471d565b6040516020818303038152906040525b915050919050565b505050565b505050565b60008073ffffffffffffffffffffffffffffffffffffffff166002600084815260200190815260200160002060009054906101000a900473ffffffffffffffffffffffffffffffffffffffff1673ffffffffffffffffffffffffffffffffffffffff1614159050919050565b612cb68383612fff565b612cc36000848484612d07565b612d02576040517f08c379a0000000000000000000000000000000000000000000000000000000008152600401612cf990614a8e565b60405180910390fd5b505050565b6000612d288473ffffffffffffffffffffffffffffffffffffffff166131d9565b15612e91578373ffffffffffffffffffffffffffffffffffffffff1663150b7a02612d516127e2565b8786866040518563ffffffff1660e01b8152600401612d739493929190614b03565b602060405180830381600087803b158015612d8d57600080fd5b505af1925050508015612dbe57506040513d601f19601f82011682018060405250810190612dbb9190614b64565b60015b612e41573d8060008114612dee576040519150601f19603f3d011682016040523d82523d6000602084013e612df3565b606091505b50600081511415612e39576040517f08c379a0000000000000000000000000000000000000000000000000000000008152600401612e3090614a8e565b60405180910390fd5b805181602001fd5b63150b7a0260e01b7bffffffffffffffffffffffffffffffffffffffffffffffffffffffff1916817bffffffffffffffffffffffffffffffffffffffffffffffffffffffff191614915050612e96565b600190505b949350505050565b60606000821415612ee6576040518060400160405280600181526020017f30000000000000000000000000000000000000000000000000000000000000008152509050612ffa565b600082905060005b60008214612f18578080612f0190614b91565b915050600a82612f119190614c09565b9150612eee565b60008167ffffffffffffffff811115612f3457612f336136e2565b5b6040519080825280601f01601f191660200182016040528015612f665781602001600182028036833780820191505090505b5090505b60008514612ff357600182612f7f9190614894565b9150600a85612f8e9190614c3a565b6030612f9a91906148c8565b60f81b818381518110612fb057612faf614c6b565b5b60200101907effffffffffffffffffffffffffffffffffffffffffffffffffffffffffffff1916908160001a905350600a85612fec9190614c09565b9450612f6a565b8093505050505b919050565b600073ffffffffffffffffffffffffffffffffffffffff168273ffffffffffffffffffffffffffffffffffffffff16141561306f576040517f08c379a000000000000000000000000000000000000000000000000000000000815260040161306690614ce6565b60405180910390fd5b61307881612c40565b156130b8576040517f08c379a00000000000000000000000000000000000000000000000000000000081526004016130af90614d52565b60405180910390fd5b6130c460008383612c36565b6001600360008473ffffffffffffffffffffffffffffffffffffffff1673ffffffffffffffffffffffffffffffffffffffff168152602001908152602001600020600082825461311491906148c8565b92505081905550816002600083815260200190815260200160002060006101000a81548173ffffffffffffffffffffffffffffffffffffffff021916908373ffffffffffffffffffffffffffffffffffffffff160217905550808273ffffffffffffffffffffffffffffffffffffffff16600073ffffffffffffffffffffffffffffffffffffffff167fddf252ad1be2c89b69c2b068fc378daa952ba7f163c4a11628f55a4df523b3ef60405160405180910390a46131d560008383612c3b565b5050565b6000808273ffffffffffffffffffffffffffffffffffffffff163b119050919050565b8280546132089061424b565b90600052602060002090601f01602090048101928261322a5760008555613271565b82601f1061324357805160ff1916838001178555613271565b82800160010185558215613271579182015b82811115613270578251825591602001919060010190613255565b5b50905061327e91906132b9565b5090565b604051806060016040528060608152602001600073ffffffffffffffffffffffffffffffffffffffff168152602001606081525090565b5b808211156132d25760008160009055506001016132ba565b5090565b6000604051905090565b600080fd5b600080fd5b60007fffffffff0000000000000000000000000000000000000000000000000000000082169050919050565b61331f816132ea565b811461332a57600080fd5b50565b60008135905061333c81613316565b92915050565b600060208284031215613358576133576132e0565b5b60006133668482850161332d565b91505092915050565b60008115159050919050565b6133848161336f565b82525050565b600060208201905061339f600083018461337b565b92915050565b6000819050919050565b6133b8816133a5565b81146133c357600080fd5b50565b6000813590506133d5816133af565b92915050565b600080604083850312156133f2576133f16132e0565b5b6000613400858286016133c6565b9250506020613411858286016133c6565b9150509250929050565b600060208284031215613431576134306132e0565b5b600061343f848285016133c6565b91505092915050565b600081519050919050565b600082825260208201905092915050565b60005b83811015613482578082015181840152602081019050613467565b83811115613491576000848401525b50505050565b6000601f19601f8301169050919050565b60006134b382613448565b6134bd8185613453565b93506134cd818560208601613464565b6134d681613497565b840191505092915050565b600060208201905081810360008301526134fb81846134a8565b905092915050565b600073ffffffffffffffffffffffffffffffffffffffff82169050919050565b600061352e82613503565b9050919050565b61353e81613523565b82525050565b60006020820190506135596000830184613535565b92915050565b61356881613523565b811461357357600080fd5b50565b6000813590506135858161355f565b92915050565b600080604083850312156135a2576135a16132e0565b5b60006135b085828601613576565b92505060206135c1858286016133c6565b9150509250929050565b6135d4816133a5565b82525050565b6000610160820190506135f0600083018e6135cb565b6135fd602083018d613535565b61360a604083018c613535565b613617606083018b6135cb565b613624608083018a6135cb565b61363160a083018961337b565b61363e60c08301886135cb565b61364b60e083018761337b565b6136596101008301866135cb565b613667610120830185613535565b61367561014083018461337b565b9c9b505050505050505050505050565b60008060006060848603121561369e5761369d6132e0565b5b60006136ac86828701613576565b93505060206136bd86828701613576565b92505060406136ce868287016133c6565b9150509250925092565b600080fd5b600080fd5b7f4e487b7100000000000000000000000000000000000000000000000000000000600052604160045260246000fd5b61371a82613497565b810181811067ffffffffffffffff82111715613739576137386136e2565b5b80604052505050565b600061374c6132d6565b90506137588282613711565b919050565b600067ffffffffffffffff821115613778576137776136e2565b5b61378182613497565b9050602081019050919050565b82818337600083830152505050565b60006137b06137ab8461375d565b613742565b9050828152602081018484840111156137cc576137cb6136dd565b5b6137d784828561378e565b509392505050565b600082601f8301126137f4576137f36136d8565b5b813561380484826020860161379d565b91505092915050565b600060208284031215613823576138226132e0565b5b600082013567ffffffffffffffff811115613841576138406132e5565b5b61384d848285016137df565b91505092915050565b600060208201905061386b60008301846135cb565b92915050565b600060208284031215613887576138866132e0565b5b600061389584828501613576565b91505092915050565b6138a78161336f565b81146138b257600080fd5b50565b6000813590506138c48161389e565b92915050565b600080604083850312156138e1576138e06132e0565b5b60006138ef85828601613576565b9250506020613900858286016138b5565b9150509250929050565b600067ffffffffffffffff821115613925576139246136e2565b5b61392e82613497565b9050602081019050919050565b600061394e6139498461390a565b613742565b90508281526020810184848401111561396a576139696136dd565b5b61397584828561378e565b509392505050565b600082601f830112613992576139916136d8565b5b81356139a284826020860161393b565b91505092915050565b600080600080608085870312156139c5576139c46132e0565b5b60006139d387828801613576565b94505060206139e487828801613576565b93505060406139f5878288016133c6565b925050606085013567ffffffffffffffff811115613a1657613a156132e5565b5b613a228782880161397d565b91505092959194509250565b600081519050919050565b600082825260208201905092915050565b6000819050602082019050919050565b613a63816133a5565b82525050565b6000613a758383613a5a565b60208301905092915050565b6000602082019050919050565b6000613a9982613a2e565b613aa38185613a39565b9350613aae83613a4a565b8060005b83811015613adf578151613ac68882613a69565b9750613ad183613a81565b925050600181019050613ab2565b5085935050505092915050565b613af581613523565b82525050565b600081519050919050565b600082825260208201905092915050565b6000819050602082019050919050565b600082825260208201905092915050565b6000613b4382613448565b613b4d8185613b27565b9350613b5d818560208601613464565b613b6681613497565b840191505092915050565b6000613b7d8383613b38565b905092915050565b6000602082019050919050565b6000613b9d82613afb565b613ba78185613b06565b935083602082028501613bb985613b17565b8060005b85811015613bf55784840389528151613bd68582613b71565b9450613be183613b85565b925060208a01995050600181019050613bbd565b50829750879550505050505092915050565b60006060830160008301518482036000860152613c248282613a8e565b9150506020830151613c396020860182613aec565b5060408301518482036040860152613c518282613b92565b9150508091505092915050565b60006020820190508181036000830152613c788184613c07565b905092915050565b60008060408385031215613c9757613c966132e0565b5b6000613ca585828601613576565b9250506020613cb685828601613576565b9150509250929050565b7f596f75206f776e2074686973206e667400000000000000000000000000000000600082015250565b6000613cf6601083613453565b9150613d0182613cc0565b602082019050919050565b60006020820190508181036000830152613d2581613ce9565b9050919050565b7f596f206f776e2074686973206f7572206e667400000000000000000000000000600082015250565b6000613d62601383613453565b9150613d6d82613d2c565b602082019050919050565b60006020820190508181036000830152613d9181613d55565b9050919050565b7f496e76616c6964205472616e73616374696f6e00000000000000000000000000600082015250565b6000613dce601383613453565b9150613dd982613d98565b602082019050919050565b60006020820190508181036000830152613dfd81613dc1565b9050919050565b7f596f7520446f6e2774204861766520456e6f7567682045746820546f20426964600082015250565b6000613e3a602083613453565b9150613e4582613e04565b602082019050919050565b60006020820190508181036000830152613e6981613e2d565b9050919050565b7f4e6674206973206e6f7420696e20417563746f6e000000000000000000000000600082015250565b6000613ea6601483613453565b9150613eb182613e70565b602082019050919050565b60006020820190508181036000830152613ed581613e99565b9050919050565b7f43757272656e742042696420507269636520697320486967686572207468616e60008201527f20796f75722042616c616e636500000000000000000000000000000000000000602082015250565b6000613f38602d83613453565b9150613f4382613edc565b604082019050919050565b60006020820190508181036000830152613f6781613f2b565b9050919050565b7f4e6f2062616c616e636520666f756e6420666f722074686973206e6674000000600082015250565b6000613fa4601d83613453565b9150613faf82613f6e565b602082019050919050565b60006020820190508181036000830152613fd381613f97565b9050919050565b7f4f66666572206e6f7420666f756e640000000000000000000000000000000000600082015250565b6000614010600f83613453565b915061401b82613fda565b602082019050919050565b6000602082019050818103600083015261403f81614003565b9050919050565b7f496e76616c6964207472616e73616374696f6e00000000000000000000000000600082015250565b600061407c601383613453565b915061408782614046565b602082019050919050565b600060208201905081810360008301526140ab8161406f565b9050919050565b7f596f75722062616c616e6365206973206c6f7700000000000000000000000000600082015250565b60006140e8601383613453565b91506140f3826140b2565b602082019050919050565b60006020820190508181036000830152614117816140db565b9050919050565b7f4e4654206e6f7420617661696c61626c6520666f72206f666665727300000000600082015250565b6000614154601c83613453565b915061415f8261411e565b602082019050919050565b6000602082019050818103600083015261418381614147565b9050919050565b7f4f66666572205072696365204c657373207468616e2070726576696f7573204260008201527f6964732f4f666665727300000000000000000000000000000000000000000000602082015250565b60006141e6602a83613453565b91506141f18261418a565b604082019050919050565b60006020820190508181036000830152614215816141d9565b9050919050565b7f4e487b7100000000000000000000000000000000000000000000000000000000600052602260045260246000fd5b6000600282049050600182168061426357607f821691505b602082108114156142775761427661421c565b5b50919050565b7f4552433732313a20617070726f76616c20746f2063757272656e74206f776e6560008201527f7200000000000000000000000000000000000000000000000000000000000000602082015250565b60006142d9602183613453565b91506142e48261427d565b604082019050919050565b60006020820190508181036000830152614308816142cc565b9050919050565b7f4552433732313a20617070726f76652063616c6c6572206973206e6f7420746f60008201527f6b656e206f776e6572206e6f7220617070726f76656420666f7220616c6c0000602082015250565b600061436b603e83613453565b91506143768261430f565b604082019050919050565b6000602082019050818103600083015261439a8161435e565b9050919050565b7f596f75722042616c616e6520697320546f6f204c6f7700000000000000000000600082015250565b60006143d7601683613453565b91506143e2826143a1565b602082019050919050565b60006020820190508181036000830152614406816143ca565b9050919050565b7f54686973206e667420697320696e206d61726b657420706c6163650000000000600082015250565b6000614443601b83613453565b915061444e8261440d565b602082019050919050565b6000602082019050818103600083015261447281614436565b9050919050565b7f4552433732313a2063616c6c6572206973206e6f7420746f6b656e206f776e6560008201527f72206e6f7220617070726f766564000000000000000000000000000000000000602082015250565b60006144d5602e83613453565b91506144e082614479565b604082019050919050565b60006020820190508181036000830152614504816144c8565b9050919050565b7f4552433732313a20696e76616c696420746f6b656e2049440000000000000000600082015250565b6000614541601883613453565b915061454c8261450b565b602082019050919050565b6000602082019050818103600083015261457081614534565b9050919050565b7f4552433732313a2061646472657373207a65726f206973206e6f74206120766160008201527f6c6964206f776e65720000000000000000000000000000000000000000000000602082015250565b60006145d3602983613453565b91506145de82614577565b604082019050919050565b60006020820190508181036000830152614602816145c6565b9050919050565b7f4164642061206c697374696e6700000000000000000000000000000000000000600082015250565b600061463f600d83613453565b915061464a82614609565b602082019050919050565b6000602082019050818103600083015261466e81614632565b9050919050565b7f596f7520646f6e2774206861766520656e6f7567682045544800000000000000600082015250565b60006146ab601983613453565b91506146b682614675565b602082019050919050565b600060208201905081810360008301526146da8161469e565b9050919050565b600081905092915050565b60006146f782613448565b61470181856146e1565b9350614711818560208601613464565b80840191505092915050565b600061472982856146ec565b915061473582846146ec565b91508190509392505050565b7f4552433732313a207472616e736665722066726f6d20696e636f72726563742060008201527f6f776e6572000000000000000000000000000000000000000000000000000000602082015250565b600061479d602583613453565b91506147a882614741565b604082019050919050565b600060208201905081810360008301526147cc81614790565b9050919050565b7f4552433732313a207472616e7366657220746f20746865207a65726f2061646460008201527f7265737300000000000000000000000000000000000000000000000000000000602082015250565b600061482f602483613453565b915061483a826147d3565b604082019050919050565b6000602082019050818103600083015261485e81614822565b9050919050565b7f4e487b7100000000000000000000000000000000000000000000000000000000600052601160045260246000fd5b600061489f826133a5565b91506148aa836133a5565b9250828210156148bd576148bc614865565b5b828203905092915050565b60006148d3826133a5565b91506148de836133a5565b9250827fffffffffffffffffffffffffffffffffffffffffffffffffffffffffffffffff0382111561491357614912614865565b5b828201905092915050565b7f45524337323155524953746f726167653a2055524920736574206f66206e6f6e60008201527f6578697374656e7420746f6b656e000000000000000000000000000000000000602082015250565b600061497a602e83613453565b91506149858261491e565b604082019050919050565b600060208201905081810360008301526149a98161496d565b9050919050565b7f4552433732313a20617070726f766520746f2063616c6c657200000000000000600082015250565b60006149e6601983613453565b91506149f1826149b0565b602082019050919050565b60006020820190508181036000830152614a15816149d9565b9050919050565b7f4552433732313a207472616e7366657220746f206e6f6e20455243373231526560008201527f63656976657220696d706c656d656e7465720000000000000000000000000000602082015250565b6000614a78603283613453565b9150614a8382614a1c565b604082019050919050565b60006020820190508181036000830152614aa781614a6b565b9050919050565b600081519050919050565b600082825260208201905092915050565b6000614ad582614aae565b614adf8185614ab9565b9350614aef818560208601613464565b614af881613497565b840191505092915050565b6000608082019050614b186000830187613535565b614b256020830186613535565b614b3260408301856135cb565b8181036060830152614b448184614aca565b905095945050505050565b600081519050614b5e81613316565b92915050565b600060208284031215614b7a57614b796132e0565b5b6000614b8884828501614b4f565b91505092915050565b6000614b9c826133a5565b91507fffffffffffffffffffffffffffffffffffffffffffffffffffffffffffffffff821415614bcf57614bce614865565b5b600182019050919050565b7f4e487b7100000000000000000000000000000000000000000000000000000000600052601260045260246000fd5b6000614c14826133a5565b9150614c1f836133a5565b925082614c2f57614c2e614bda565b5b828204905092915050565b6000614c45826133a5565b9150614c50836133a5565b925082614c6057614c5f614bda565b5b828206905092915050565b7f4e487b7100000000000000000000000000000000000000000000000000000000600052603260045260246000fd5b7f4552433732313a206d696e7420746f20746865207a65726f2061646472657373600082015250565b6000614cd0602083613453565b9150614cdb82614c9a565b602082019050919050565b60006020820190508181036000830152614cff81614cc3565b9050919050565b7f4552433732313a20746f6b656e20616c7265616479206d696e74656400000000600082015250565b6000614d3c601c83613453565b9150614d4782614d06565b602082019050919050565b60006020820190508181036000830152614d6b81614d2f565b905091905056fea264697066735822122006ad75df66825d985b49bf59acb0f4d53a97c534977071f506564c2070abcc0d64736f6c63430008090033",
  "linkReferences": {},
  "deployedLinkReferences": {}
}