{
  "_format": "hh-sol-artifact-1",
  "contractName": "NFTCollection",
  "sourceName": "contracts/NFTCollection.sol",
  "abi": [
    {
      "inputs": [],
      "stateMutability": "nonpayable",
      "type": "constructor"
    },
    {
      "anonymous": false,
      "inputs": [
        {
          "indexed": true,
          "internalType": "address",
          "name": "owner",
          "type": "address"
        },
        {
          "indexed": true,
          "internalType": "address",
          "name": "approved",
          "type": "address"
        },
        {
          "indexed": true,
          "internalType": "uint256",
          "name": "tokenId",
          "type": "uint256"
        }
      ],
      "name": "Approval",
      "type": "event"
    },
    {
      "anonymous": false,
      "inputs": [
        {
          "indexed": true,
          "internalType": "address",
          "name": "owner",
          "type": "address"
        },
        {
          "indexed": true,
          "internalType": "address",
          "name": "operator",
          "type": "address"
        },
        {
          "indexed": false,
          "internalType": "bool",
          "name": "approved",
          "type": "bool"
        }
      ],
      "name": "ApprovalForAll",
      "type": "event"
    },
    {
      "anonymous": false,
      "inputs": [
        {
          "indexed": true,
          "internalType": "address",
          "name": "from",
          "type": "address"
        },
        {
          "indexed": true,
          "internalType": "address",
          "name": "to",
          "type": "address"
        },
        {
          "indexed": true,
          "internalType": "uint256",
          "name": "tokenId",
          "type": "uint256"
        }
      ],
      "name": "Transfer",
      "type": "event"
    },
    {
      "inputs": [
        {
          "internalType": "uint256",
          "name": "",
          "type": "uint256"
        }
      ],
      "name": "Exchange",
      "outputs": [
        {
          "internalType": "uint256",
          "name": "tokenId",
          "type": "uint256"
        },
        {
          "internalType": "address",
          "name": "seller",
          "type": "address"
        },
        {
          "internalType": "address",
          "name": "owner",
          "type": "address"
        },
        {
          "internalType": "uint256",
          "name": "price",
          "type": "uint256"
        },
        {
          "internalType": "uint256",
          "name": "lastTransactionDate",
          "type": "uint256"
        },
        {
          "internalType": "bool",
          "name": "listed",
          "type": "bool"
        },
        {
          "internalType": "uint256",
          "name": "start_time",
          "type": "uint256"
        },
        {
          "internalType": "bool",
          "name": "inAunction",
          "type": "bool"
        },
        {
          "internalType": "uint256",
          "name": "currentHighestBid",
          "type": "uint256"
        },
        {
          "internalType": "address",
          "name": "currentHighestBidder",
          "type": "address"
        },
        {
          "internalType": "bool",
          "name": "offered",
          "type": "bool"
        }
      ],
      "stateMutability": "view",
      "type": "function"
    },
    {
      "inputs": [
        {
          "internalType": "address",
          "name": "to",
          "type": "address"
        },
        {
          "internalType": "uint256",
          "name": "tokenId",
          "type": "uint256"
        }
      ],
      "name": "approve",
      "outputs": [],
      "stateMutability": "nonpayable",
      "type": "function"
    },
    {
      "inputs": [
        {
          "internalType": "uint256",
          "name": "_tokenId",
          "type": "uint256"
        },
        {
          "internalType": "uint256",
          "name": "_listingPrice",
          "type": "uint256"
        }
      ],
      "name": "auctionNFT",
      "outputs": [],
      "stateMutability": "payable",
      "type": "function"
    },
    {
      "inputs": [
        {
          "internalType": "address",
          "name": "owner",
          "type": "address"
        }
      ],
      "name": "balanceOf",
      "outputs": [
        {
          "internalType": "uint256",
          "name": "",
          "type": "uint256"
        }
      ],
      "stateMutability": "view",
      "type": "function"
    },
    {
      "inputs": [
        {
          "internalType": "uint256",
          "name": "_tokenId",
          "type": "uint256"
        },
        {
          "internalType": "uint256",
          "name": "_bidPrice",
          "type": "uint256"
        }
      ],
      "name": "bidNFT",
      "outputs": [],
      "stateMutability": "payable",
      "type": "function"
    },
    {
      "inputs": [
        {
          "internalType": "string",
          "name": "_tokenURI",
          "type": "string"
        }
      ],
      "name": "createToken",
      "outputs": [],
      "stateMutability": "nonpayable",
      "type": "function"
    },
    {
      "inputs": [
        {
          "internalType": "uint256",
          "name": "_tokenId",
          "type": "uint256"
        }
      ],
      "name": "endAuction",
      "outputs": [],
      "stateMutability": "payable",
      "type": "function"
    },
    {
      "inputs": [
        {
          "internalType": "uint256",
          "name": "_tokenId",
          "type": "uint256"
        }
      ],
      "name": "endOffer",
      "outputs": [],
      "stateMutability": "payable",
      "type": "function"
    },
    {
      "inputs": [
        {
          "internalType": "uint256",
          "name": "tokenId",
          "type": "uint256"
        }
      ],
      "name": "getApproved",
      "outputs": [
        {
          "internalType": "address",
          "name": "",
          "type": "address"
        }
      ],
      "stateMutability": "view",
      "type": "function"
    },
    {
      "inputs": [
        {
          "internalType": "address",
          "name": "owner",
          "type": "address"
        },
        {
          "internalType": "address",
          "name": "operator",
          "type": "address"
        }
      ],
      "name": "isApprovedForAll",
      "outputs": [
        {
          "internalType": "bool",
          "name": "",
          "type": "bool"
        }
      ],
      "stateMutability": "view",
      "type": "function"
    },
    {
      "inputs": [
        {
          "internalType": "uint256",
          "name": "_tokenId",
          "type": "uint256"
        },
        {
          "internalType": "uint256",
          "name": "_listingPrice",
          "type": "uint256"
        }
      ],
      "name": "listNFT",
      "outputs": [],
      "stateMutability": "payable",
      "type": "function"
    },
    {
      "inputs": [
        {
          "internalType": "uint256",
          "name": "_tokenId",
          "type": "uint256"
        },
        {
          "internalType": "uint256",
          "name": "_offerPrice",
          "type": "uint256"
        }
      ],
      "name": "makeOffer",
      "outputs": [],
      "stateMutability": "payable",
      "type": "function"
    },
    {
      "inputs": [
        {
          "internalType": "address",
          "name": "_address",
          "type": "address"
        }
      ],
      "name": "myTokens",
      "outputs": [
        {
          "components": [
            {
              "internalType": "uint256[]",
              "name": "userTokens",
              "type": "uint256[]"
            },
            {
              "internalType": "address",
              "name": "creator",
              "type": "address"
            },
            {
              "internalType": "string[]",
              "name": "tokenURI",
              "type": "string[]"
            }
          ],
          "internalType": "struct NFTCollection.Token",
          "name": "",
          "type": "tuple"
        }
      ],
      "stateMutability": "view",
      "type": "function"
    },
    {
      "inputs": [],
      "name": "name",
      "outputs": [
        {
          "internalType": "string",
          "name": "",
          "type": "string"
        }
      ],
      "stateMutability": "view",
      "type": "function"
    },
    {
      "inputs": [
        {
          "internalType": "uint256",
          "name": "tokenId",
          "type": "uint256"
        }
      ],
      "name": "ownerOf",
      "outputs": [
        {
          "internalType": "address",
          "name": "",
          "type": "address"
        }
      ],
      "stateMutability": "view",
      "type": "function"
    },
    {
      "inputs": [
        {
          "internalType": "address",
          "name": "from",
          "type": "address"
        },
        {
          "internalType": "address",
          "name": "to",
          "type": "address"
        },
        {
          "internalType": "uint256",
          "name": "tokenId",
          "type": "uint256"
        }
      ],
      "name": "safeTransferFrom",
      "outputs": [],
      "stateMutability": "nonpayable",
      "type": "function"
    },
    {
      "inputs": [
        {
          "internalType": "address",
          "name": "from",
          "type": "address"
        },
        {
          "internalType": "address",
          "name": "to",
          "type": "address"
        },
        {
          "internalType": "uint256",
          "name": "tokenId",
          "type": "uint256"
        },
        {
          "internalType": "bytes",
          "name": "data",
          "type": "bytes"
        }
      ],
      "name": "safeTransferFrom",
      "outputs": [],
      "stateMutability": "nonpayable",
      "type": "function"
    },
    {
      "inputs": [
        {
          "internalType": "address",
          "name": "operator",
          "type": "address"
        },
        {
          "internalType": "bool",
          "name": "approved",
          "type": "bool"
        }
      ],
      "name": "setApprovalForAll",
      "outputs": [],
      "stateMutability": "nonpayable",
      "type": "function"
    },
    {
      "inputs": [
        {
          "internalType": "bytes4",
          "name": "interfaceId",
          "type": "bytes4"
        }
      ],
      "name": "supportsInterface",
      "outputs": [
        {
          "internalType": "bool",
          "name": "",
          "type": "bool"
        }
      ],
      "stateMutability": "view",
      "type": "function"
    },
    {
      "inputs": [],
      "name": "symbol",
      "outputs": [
        {
          "internalType": "string",
          "name": "",
          "type": "string"
        }
      ],
      "stateMutability": "view",
      "type": "function"
    },
    {
      "inputs": [
        {
          "internalType": "uint256",
          "name": "tokenId",
          "type": "uint256"
        }
      ],
      "name": "tokenURI",
      "outputs": [
        {
          "internalType": "string",
          "name": "",
          "type": "string"
        }
      ],
      "stateMutability": "view",
      "type": "function"
    },
    {
      "inputs": [
        {
          "internalType": "address",
          "name": "from",
          "type": "address"
        },
        {
          "internalType": "address",
          "name": "to",
          "type": "address"
        },
        {
          "internalType": "uint256",
          "name": "tokenId",
          "type": "uint256"
        }
      ],
      "name": "transferFrom",
      "outputs": [],
      "stateMutability": "nonpayable",
      "type": "function"
    }
  ],
  "bytecode": "0x6080604052603c600b553480156200001657600080fd5b506040518060400160405280600e81526020017f4e465420436f6c6c656374696f6e0000000000000000000000000000000000008152506040518060400160405280600481526020017f4e4654430000000000000000000000000000000000000000000000000000000081525081600090805190602001906200009b929190620000bd565b508060019080519060200190620000b4929190620000bd565b505050620001d2565b828054620000cb906200019c565b90600052602060002090601f016020900481019282620000ef57600085556200013b565b82601f106200010a57805160ff19168380011785556200013b565b828001600101855582156200013b579182015b828111156200013a5782518255916020019190600101906200011d565b5b5090506200014a91906200014e565b5090565b5b80821115620001695760008160009055506001016200014f565b5090565b7f4e487b7100000000000000000000000000000000000000000000000000000000600052602260045260246000fd5b60006002820490506001821680620001b557607f821691505b60208210811415620001cc57620001cb6200016d565b5b50919050565b614d4080620001e26000396000f3fe6080604052600436106101355760003560e01c806345576f94116100ab578063a22cb4651161006f578063a22cb465146103fb578063b88d4fde14610424578063b9a2de3a1461044d578063c87b56dd14610469578063dc1df3f6146104a6578063e985e9c5146104e357610135565b806345576f94146103115780636352211e1461033a57806370a082311461037757806394383f14146103b457806395d89b41146103d057610135565b8063081812fc116100fd578063081812fc146101f6578063095ea7b314610233578063102389ed1461025c57806311d92a081461027857806323b872dd146102bf57806342842e0e146102e857610135565b806301ffc9a71461013a5780630551997114610177578063058340581461019357806305b7cdd3146101af57806306fdde03146101cb575b600080fd5b34801561014657600080fd5b50610161600480360381019061015c91906132da565b610520565b60405161016e9190613322565b60405180910390f35b610191600480360381019061018c9190613373565b610602565b005b6101ad60048036038101906101a891906133b3565b6109f0565b005b6101c960048036038101906101c49190613373565b610ddd565b005b3480156101d757600080fd5b506101e061117f565b6040516101ed9190613479565b60405180910390f35b34801561020257600080fd5b5061021d600480360381019061021891906133b3565b611211565b60405161022a91906134dc565b60405180910390f35b34801561023f57600080fd5b5061025a60048036038101906102559190613523565b611257565b005b61027660048036038101906102719190613373565b61136f565b005b34801561028457600080fd5b5061029f600480360381019061029a91906133b3565b61163e565b6040516102b69b9a99989796959493929190613572565b60405180910390f35b3480156102cb57600080fd5b506102e660048036038101906102e1919061361d565b61171f565b005b3480156102f457600080fd5b5061030f600480360381019061030a919061361d565b61177f565b005b34801561031d57600080fd5b50610338600480360381019061033391906137a5565b61179f565b005b34801561034657600080fd5b50610361600480360381019061035c91906133b3565b6118ca565b60405161036e91906134dc565b60405180910390f35b34801561038357600080fd5b5061039e600480360381019061039991906137ee565b61197c565b6040516103ab919061381b565b60405180910390f35b6103ce60048036038101906103c99190613373565b611a34565b005b3480156103dc57600080fd5b506103e5611c2e565b6040516103f29190613479565b60405180910390f35b34801561040757600080fd5b50610422600480360381019061041d9190613862565b611cc0565b005b34801561043057600080fd5b5061044b60048036038101906104469190613943565b611cd6565b005b610467600480360381019061046291906133b3565b611d38565b005b34801561047557600080fd5b50610490600480360381019061048b91906133b3565b6120d7565b60405161049d9190613479565b60405180910390f35b3480156104b257600080fd5b506104cd60048036038101906104c891906137ee565b6121ea565b6040516104da9190613bf6565b60405180910390f35b3480156104ef57600080fd5b5061050a60048036038101906105059190613c18565b6123ca565b6040516105179190613322565b60405180910390f35b60007f80ac58cd000000000000000000000000000000000000000000000000000000007bffffffffffffffffffffffffffffffffffffffffffffffffffffffff1916827bffffffffffffffffffffffffffffffffffffffffffffffffffffffff191614806105eb57507f5b5e139f000000000000000000000000000000000000000000000000000000007bffffffffffffffffffffffffffffffffffffffffffffffffffffffff1916827bffffffffffffffffffffffffffffffffffffffffffffffffffffffff1916145b806105fb57506105fa8261245e565b5b9050919050565b3373ffffffffffffffffffffffffffffffffffffffff16610622836118ca565b73ffffffffffffffffffffffffffffffffffffffff161415610679576040517f08c379a000000000000000000000000000000000000000000000000000000000815260040161067090613ca4565b60405180910390fd5b6000600a600084815260200190815260200160002090508060020160009054906101000a900473ffffffffffffffffffffffffffffffffffffffff1673ffffffffffffffffffffffffffffffffffffffff163373ffffffffffffffffffffffffffffffffffffffff161415610723576040517f08c379a000000000000000000000000000000000000000000000000000000000815260040161071a90613d10565b60405180910390fd5b600073ffffffffffffffffffffffffffffffffffffffff163373ffffffffffffffffffffffffffffffffffffffff161415610793576040517f08c379a000000000000000000000000000000000000000000000000000000000815260040161078a90613d7c565b60405180910390fd5b813410156107d6576040517f08c379a00000000000000000000000000000000000000000000000000000000081526004016107cd90613de8565b60405180910390fd5b8060070160009054906101000a900460ff16610827576040517f08c379a000000000000000000000000000000000000000000000000000000000815260040161081e90613e54565b60405180910390fd5b806008015434101561086e576040517f08c379a000000000000000000000000000000000000000000000000000000000815260040161086590613ee6565b60405180910390fd5b8060020160009054906101000a900473ffffffffffffffffffffffffffffffffffffffff1673ffffffffffffffffffffffffffffffffffffffff168160090160009054906101000a900473ffffffffffffffffffffffffffffffffffffffff1673ffffffffffffffffffffffffffffffffffffffff161461099f578060080154471161092f576040517f08c379a000000000000000000000000000000000000000000000000000000000815260040161092690613f52565b60405180910390fd5b8060090160009054906101000a900473ffffffffffffffffffffffffffffffffffffffff1673ffffffffffffffffffffffffffffffffffffffff166108fc82600801549081150290604051600060405180830381858888f1935050505015801561099d573d6000803e3d6000fd5b505b338160090160006101000a81548173ffffffffffffffffffffffffffffffffffffffff021916908373ffffffffffffffffffffffffffffffffffffffff160217905550348160080181905550505050565b3373ffffffffffffffffffffffffffffffffffffffff16610a10826118ca565b73ffffffffffffffffffffffffffffffffffffffff161415610a67576040517f08c379a0000000000000000000000000000000000000000000000000000000008152600401610a5e90613d7c565b60405180910390fd5b600073ffffffffffffffffffffffffffffffffffffffff163373ffffffffffffffffffffffffffffffffffffffff161415610ad7576040517f08c379a0000000000000000000000000000000000000000000000000000000008152600401610ace90613d7c565b60405180910390fd5b6000600a60008381526020019081526020016000209050600115158160090160149054906101000a900460ff16151514610b46576040517f08c379a0000000000000000000000000000000000000000000000000000000008152600401610b3d90613fbe565b60405180910390fd5b3373ffffffffffffffffffffffffffffffffffffffff168160020160009054906101000a900473ffffffffffffffffffffffffffffffffffffffff1673ffffffffffffffffffffffffffffffffffffffff1614610bd8576040517f08c379a0000000000000000000000000000000000000000000000000000000008152600401610bcf9061402a565b60405180910390fd5b8060020160009054906101000a900473ffffffffffffffffffffffffffffffffffffffff1673ffffffffffffffffffffffffffffffffffffffff168160090160009054906101000a900473ffffffffffffffffffffffffffffffffffffffff1673ffffffffffffffffffffffffffffffffffffffff1614610d095780600801544711610c99576040517f08c379a0000000000000000000000000000000000000000000000000000000008152600401610c9090613f52565b60405180910390fd5b8060020160009054906101000a900473ffffffffffffffffffffffffffffffffffffffff1673ffffffffffffffffffffffffffffffffffffffff166108fc82600801549081150290604051600060405180830381858888f19350505050158015610d07573d6000803e3d6000fd5b505b60008160090160146101000a81548160ff02191690831515021790555060008160050160006101000a81548160ff0219169083151502179055508060090160009054906101000a900473ffffffffffffffffffffffffffffffffffffffff168160020160006101000a81548173ffffffffffffffffffffffffffffffffffffffff021916908373ffffffffffffffffffffffffffffffffffffffff160217905550610dd9308260090160009054906101000a900473ffffffffffffffffffffffffffffffffffffffff16846124c8565b5050565b3373ffffffffffffffffffffffffffffffffffffffff16610dfd836118ca565b73ffffffffffffffffffffffffffffffffffffffff161415610e54576040517f08c379a0000000000000000000000000000000000000000000000000000000008152600401610e4b90613d7c565b60405180910390fd5b6000600a600084815260200190815260200160002090508060020160009054906101000a900473ffffffffffffffffffffffffffffffffffffffff1673ffffffffffffffffffffffffffffffffffffffff163373ffffffffffffffffffffffffffffffffffffffff161415610efe576040517f08c379a0000000000000000000000000000000000000000000000000000000008152600401610ef590613d10565b60405180910390fd5b81341015610f41576040517f08c379a0000000000000000000000000000000000000000000000000000000008152600401610f3890614096565b60405180910390fd5b600115158160050160009054906101000a900460ff16151514610f99576040517f08c379a0000000000000000000000000000000000000000000000000000000008152600401610f9090614102565b60405180910390fd5b8060080154341015610fe0576040517f08c379a0000000000000000000000000000000000000000000000000000000008152600401610fd790614194565b60405180910390fd5b8060020160009054906101000a900473ffffffffffffffffffffffffffffffffffffffff1673ffffffffffffffffffffffffffffffffffffffff168160090160009054906101000a900473ffffffffffffffffffffffffffffffffffffffff1673ffffffffffffffffffffffffffffffffffffffff161461111157806008015447116110a1576040517f08c379a000000000000000000000000000000000000000000000000000000000815260040161109890613f52565b60405180910390fd5b8060090160009054906101000a900473ffffffffffffffffffffffffffffffffffffffff1673ffffffffffffffffffffffffffffffffffffffff166108fc82600801549081150290604051600060405180830381858888f1935050505015801561110f573d6000803e3d6000fd5b505b338160090160006101000a81548173ffffffffffffffffffffffffffffffffffffffff021916908373ffffffffffffffffffffffffffffffffffffffff16021790555034816008018190555060018160090160146101000a81548160ff021916908315150217905550505050565b60606000805461118e906141e3565b80601f01602080910402602001604051908101604052809291908181526020018280546111ba906141e3565b80156112075780601f106111dc57610100808354040283529160200191611207565b820191906000526020600020905b8154815290600101906020018083116111ea57829003601f168201915b5050505050905090565b600061121c8261272f565b6004600083815260200190815260200160002060009054906101000a900473ffffffffffffffffffffffffffffffffffffffff169050919050565b6000611262826118ca565b90508073ffffffffffffffffffffffffffffffffffffffff168373ffffffffffffffffffffffffffffffffffffffff1614156112d3576040517f08c379a00000000000000000000000000000000000000000000000000000000081526004016112ca90614287565b60405180910390fd5b8073ffffffffffffffffffffffffffffffffffffffff166112f261277a565b73ffffffffffffffffffffffffffffffffffffffff16148061132157506113208161131b61277a565b6123ca565b5b611360576040517f08c379a000000000000000000000000000000000000000000000000000000000815260040161135790614319565b60405180910390fd5b61136a8383612782565b505050565b3373ffffffffffffffffffffffffffffffffffffffff1661138f836118ca565b73ffffffffffffffffffffffffffffffffffffffff16146113e5576040517f08c379a00000000000000000000000000000000000000000000000000000000081526004016113dc90613d7c565b60405180910390fd5b600073ffffffffffffffffffffffffffffffffffffffff163373ffffffffffffffffffffffffffffffffffffffff161415611455576040517f08c379a000000000000000000000000000000000000000000000000000000000815260040161144c90613d7c565b60405180910390fd5b80341015611498576040517f08c379a000000000000000000000000000000000000000000000000000000000815260040161148f90614385565b60405180910390fd5b60011515600a600084815260200190815260200160002060050160009054906101000a900460ff1615151415611503576040517f08c379a00000000000000000000000000000000000000000000000000000000081526004016114fa906143f1565b60405180910390fd5b6000600a6000848152602001908152602001600020905060018160070160006101000a81548160ff021916908315150217905550828160000181905550338160020160006101000a81548173ffffffffffffffffffffffffffffffffffffffff021916908373ffffffffffffffffffffffffffffffffffffffff160217905550338160090160006101000a81548173ffffffffffffffffffffffffffffffffffffffff021916908373ffffffffffffffffffffffffffffffffffffffff160217905550348160080181905550338160010160006101000a81548173ffffffffffffffffffffffffffffffffffffffff021916908373ffffffffffffffffffffffffffffffffffffffff16021790555081816003018190555042816006018190555061162f3330856124c8565b611639600861283b565b505050565b600a6020528060005260406000206000915090508060000154908060010160009054906101000a900473ffffffffffffffffffffffffffffffffffffffff16908060020160009054906101000a900473ffffffffffffffffffffffffffffffffffffffff16908060030154908060040154908060050160009054906101000a900460ff16908060060154908060070160009054906101000a900460ff16908060080154908060090160009054906101000a900473ffffffffffffffffffffffffffffffffffffffff16908060090160149054906101000a900460ff1690508b565b61173061172a61277a565b82612851565b61176f576040517f08c379a000000000000000000000000000000000000000000000000000000000815260040161176690614483565b60405180910390fd5b61177a8383836124c8565b505050565b61179a83838360405180602001604052806000815250611cd6565b505050565b60006117ab60076128e6565b90506117b733826128f4565b6117c18183612912565b6117cb600761283b565b6117d6306001611cc0565b6000600960003373ffffffffffffffffffffffffffffffffffffffff1673ffffffffffffffffffffffffffffffffffffffff168152602001908152602001600020905080600001829080600181540180825580915050600190039060005260206000200160009091909190915055338160010160006101000a81548173ffffffffffffffffffffffffffffffffffffffff021916908373ffffffffffffffffffffffffffffffffffffffff16021790555080600201839080600181540180825580915050600190039060005260206000200160009091909190915090805190602001906118c4929190613194565b50505050565b6000806002600084815260200190815260200160002060009054906101000a900473ffffffffffffffffffffffffffffffffffffffff169050600073ffffffffffffffffffffffffffffffffffffffff168173ffffffffffffffffffffffffffffffffffffffff161415611973576040517f08c379a000000000000000000000000000000000000000000000000000000000815260040161196a906144ef565b60405180910390fd5b80915050919050565b60008073ffffffffffffffffffffffffffffffffffffffff168273ffffffffffffffffffffffffffffffffffffffff1614156119ed576040517f08c379a00000000000000000000000000000000000000000000000000000000081526004016119e490614581565b60405180910390fd5b600360008373ffffffffffffffffffffffffffffffffffffffff1673ffffffffffffffffffffffffffffffffffffffff168152602001908152602001600020549050919050565b3373ffffffffffffffffffffffffffffffffffffffff16611a54836118ca565b73ffffffffffffffffffffffffffffffffffffffff1614611aaa576040517f08c379a0000000000000000000000000000000000000000000000000000000008152600401611aa190613d7c565b60405180910390fd5b60008111611aed576040517f08c379a0000000000000000000000000000000000000000000000000000000008152600401611ae4906145ed565b60405180910390fd5b80341015611b30576040517f08c379a0000000000000000000000000000000000000000000000000000000008152600401611b2790614659565b60405180910390fd5b6000611b3c60086128e6565b90506000600a60008581526020019081526020016000209050818160000181905550338160010160006101000a81548173ffffffffffffffffffffffffffffffffffffffff021916908373ffffffffffffffffffffffffffffffffffffffff160217905550338160020160006101000a81548173ffffffffffffffffffffffffffffffffffffffff021916908373ffffffffffffffffffffffffffffffffffffffff16021790555082816003018190555042816004018190555060018160050160006101000a81548160ff021916908315150217905550611c1e3330866124c8565b611c28600861283b565b50505050565b606060018054611c3d906141e3565b80601f0160208091040260200160405190810160405280929190818152602001828054611c69906141e3565b8015611cb65780601f10611c8b57610100808354040283529160200191611cb6565b820191906000526020600020905b815481529060010190602001808311611c9957829003601f168201915b5050505050905090565b611cd2611ccb61277a565b8383612986565b5050565b611ce7611ce161277a565b83612851565b611d26576040517f08c379a0000000000000000000000000000000000000000000000000000000008152600401611d1d90614483565b60405180910390fd5b611d3284848484612af3565b50505050565b3373ffffffffffffffffffffffffffffffffffffffff16611d58826118ca565b73ffffffffffffffffffffffffffffffffffffffff161415611daf576040517f08c379a0000000000000000000000000000000000000000000000000000000008152600401611da690613d7c565b60405180910390fd5b600073ffffffffffffffffffffffffffffffffffffffff163373ffffffffffffffffffffffffffffffffffffffff161415611e1f576040517f08c379a0000000000000000000000000000000000000000000000000000000008152600401611e1690613d7c565b60405180910390fd5b6000600a600083815260200190815260200160002090503373ffffffffffffffffffffffffffffffffffffffff168160020160009054906101000a900473ffffffffffffffffffffffffffffffffffffffff1673ffffffffffffffffffffffffffffffffffffffff1614611ec8576040517f08c379a0000000000000000000000000000000000000000000000000000000008152600401611ebf9061402a565b60405180910390fd5b8060020160009054906101000a900473ffffffffffffffffffffffffffffffffffffffff1673ffffffffffffffffffffffffffffffffffffffff168160090160009054906101000a900473ffffffffffffffffffffffffffffffffffffffff1673ffffffffffffffffffffffffffffffffffffffff16146120605780600801544711611f89576040517f08c379a0000000000000000000000000000000000000000000000000000000008152600401611f8090613f52565b60405180910390fd5b8060020160009054906101000a900473ffffffffffffffffffffffffffffffffffffffff1673ffffffffffffffffffffffffffffffffffffffff166108fc82600801549081150290604051600060405180830381858888f19350505050158015611ff7573d6000803e3d6000fd5b508060090160009054906101000a900473ffffffffffffffffffffffffffffffffffffffff168160020160006101000a81548173ffffffffffffffffffffffffffffffffffffffff021916908373ffffffffffffffffffffffffffffffffffffffff1602179055505b60008160050160006101000a81548160ff0219169083151502179055506000816008018190555060008160070160006101000a81548160ff0219169083151502179055506120d3308260090160009054906101000a900473ffffffffffffffffffffffffffffffffffffffff16846124c8565b5050565b60606120e28261272f565b6000600660008481526020019081526020016000208054612102906141e3565b80601f016020809104026020016040519081016040528092919081815260200182805461212e906141e3565b801561217b5780601f106121505761010080835404028352916020019161217b565b820191906000526020600020905b81548152906001019060200180831161215e57829003601f168201915b50505050509050600061218c612b4f565b90506000815114156121a25781925050506121e5565b6000825111156121d75780826040516020016121bf9291906146b5565b604051602081830303815290604052925050506121e5565b6121e084612b66565b925050505b919050565b6121f261321a565b600960008373ffffffffffffffffffffffffffffffffffffffff1673ffffffffffffffffffffffffffffffffffffffff1681526020019081526020016000206040518060600160405290816000820180548060200260200160405190810160405280929190818152602001828054801561228b57602002820191906000526020600020905b815481526020019060010190808311612277575b505050505081526020016001820160009054906101000a900473ffffffffffffffffffffffffffffffffffffffff1673ffffffffffffffffffffffffffffffffffffffff1673ffffffffffffffffffffffffffffffffffffffff16815260200160028201805480602002602001604051908101604052809291908181526020016000905b828210156123bb57838290600052602060002001805461232e906141e3565b80601f016020809104026020016040519081016040528092919081815260200182805461235a906141e3565b80156123a75780601f1061237c576101008083540402835291602001916123a7565b820191906000526020600020905b81548152906001019060200180831161238a57829003601f168201915b50505050508152602001906001019061230f565b50505050815250509050919050565b6000600560008473ffffffffffffffffffffffffffffffffffffffff1673ffffffffffffffffffffffffffffffffffffffff16815260200190815260200160002060008373ffffffffffffffffffffffffffffffffffffffff1673ffffffffffffffffffffffffffffffffffffffff16815260200190815260200160002060009054906101000a900460ff16905092915050565b60007f01ffc9a7000000000000000000000000000000000000000000000000000000007bffffffffffffffffffffffffffffffffffffffffffffffffffffffff1916827bffffffffffffffffffffffffffffffffffffffffffffffffffffffff1916149050919050565b8273ffffffffffffffffffffffffffffffffffffffff166124e8826118ca565b73ffffffffffffffffffffffffffffffffffffffff161461253e576040517f08c379a00000000000000000000000000000000000000000000000000000000081526004016125359061474b565b60405180910390fd5b600073ffffffffffffffffffffffffffffffffffffffff168273ffffffffffffffffffffffffffffffffffffffff1614156125ae576040517f08c379a00000000000000000000000000000000000000000000000000000000081526004016125a5906147dd565b60405180910390fd5b6125b9838383612bce565b6125c4600082612782565b6001600360008573ffffffffffffffffffffffffffffffffffffffff1673ffffffffffffffffffffffffffffffffffffffff1681526020019081526020016000206000828254612614919061482c565b925050819055506001600360008473ffffffffffffffffffffffffffffffffffffffff1673ffffffffffffffffffffffffffffffffffffffff168152602001908152602001600020600082825461266b9190614860565b92505081905550816002600083815260200190815260200160002060006101000a81548173ffffffffffffffffffffffffffffffffffffffff021916908373ffffffffffffffffffffffffffffffffffffffff160217905550808273ffffffffffffffffffffffffffffffffffffffff168473ffffffffffffffffffffffffffffffffffffffff167fddf252ad1be2c89b69c2b068fc378daa952ba7f163c4a11628f55a4df523b3ef60405160405180910390a461272a838383612bd3565b505050565b61273881612bd8565b612777576040517f08c379a000000000000000000000000000000000000000000000000000000000815260040161276e906144ef565b60405180910390fd5b50565b600033905090565b816004600083815260200190815260200160002060006101000a81548173ffffffffffffffffffffffffffffffffffffffff021916908373ffffffffffffffffffffffffffffffffffffffff160217905550808273ffffffffffffffffffffffffffffffffffffffff166127f5836118ca565b73ffffffffffffffffffffffffffffffffffffffff167f8c5be1e5ebec7d5bd14f71427d1e84f3dd0314c0f7b2291e5b200ac8c7c3b92560405160405180910390a45050565b6001816000016000828254019250508190555050565b60008061285d836118ca565b90508073ffffffffffffffffffffffffffffffffffffffff168473ffffffffffffffffffffffffffffffffffffffff16148061289f575061289e81856123ca565b5b806128dd57508373ffffffffffffffffffffffffffffffffffffffff166128c584611211565b73ffffffffffffffffffffffffffffffffffffffff16145b91505092915050565b600081600001549050919050565b61290e828260405180602001604052806000815250612c44565b5050565b61291b82612bd8565b61295a576040517f08c379a000000000000000000000000000000000000000000000000000000000815260040161295190614928565b60405180910390fd5b80600660008481526020019081526020016000209080519060200190612981929190613194565b505050565b8173ffffffffffffffffffffffffffffffffffffffff168373ffffffffffffffffffffffffffffffffffffffff1614156129f5576040517f08c379a00000000000000000000000000000000000000000000000000000000081526004016129ec90614994565b60405180910390fd5b80600560008573ffffffffffffffffffffffffffffffffffffffff1673ffffffffffffffffffffffffffffffffffffffff16815260200190815260200160002060008473ffffffffffffffffffffffffffffffffffffffff1673ffffffffffffffffffffffffffffffffffffffff16815260200190815260200160002060006101000a81548160ff0219169083151502179055508173ffffffffffffffffffffffffffffffffffffffff168373ffffffffffffffffffffffffffffffffffffffff167f17307eab39ab6107e8899845ad3d59bd9653f200f220920489ca2b5937696c3183604051612ae69190613322565b60405180910390a3505050565b612afe8484846124c8565b612b0a84848484612c9f565b612b49576040517f08c379a0000000000000000000000000000000000000000000000000000000008152600401612b4090614a26565b60405180910390fd5b50505050565b606060405180602001604052806000815250905090565b6060612b718261272f565b6000612b7b612b4f565b90506000815111612b9b5760405180602001604052806000815250612bc6565b80612ba584612e36565b604051602001612bb69291906146b5565b6040516020818303038152906040525b915050919050565b505050565b505050565b60008073ffffffffffffffffffffffffffffffffffffffff166002600084815260200190815260200160002060009054906101000a900473ffffffffffffffffffffffffffffffffffffffff1673ffffffffffffffffffffffffffffffffffffffff1614159050919050565b612c4e8383612f97565b612c5b6000848484612c9f565b612c9a576040517f08c379a0000000000000000000000000000000000000000000000000000000008152600401612c9190614a26565b60405180910390fd5b505050565b6000612cc08473ffffffffffffffffffffffffffffffffffffffff16613171565b15612e29578373ffffffffffffffffffffffffffffffffffffffff1663150b7a02612ce961277a565b8786866040518563ffffffff1660e01b8152600401612d0b9493929190614a9b565b602060405180830381600087803b158015612d2557600080fd5b505af1925050508015612d5657506040513d601f19601f82011682018060405250810190612d539190614afc565b60015b612dd9573d8060008114612d86576040519150601f19603f3d011682016040523d82523d6000602084013e612d8b565b606091505b50600081511415612dd1576040517f08c379a0000000000000000000000000000000000000000000000000000000008152600401612dc890614a26565b60405180910390fd5b805181602001fd5b63150b7a0260e01b7bffffffffffffffffffffffffffffffffffffffffffffffffffffffff1916817bffffffffffffffffffffffffffffffffffffffffffffffffffffffff191614915050612e2e565b600190505b949350505050565b60606000821415612e7e576040518060400160405280600181526020017f30000000000000000000000000000000000000000000000000000000000000008152509050612f92565b600082905060005b60008214612eb0578080612e9990614b29565b915050600a82612ea99190614ba1565b9150612e86565b60008167ffffffffffffffff811115612ecc57612ecb61367a565b5b6040519080825280601f01601f191660200182016040528015612efe5781602001600182028036833780820191505090505b5090505b60008514612f8b57600182612f17919061482c565b9150600a85612f269190614bd2565b6030612f329190614860565b60f81b818381518110612f4857612f47614c03565b5b60200101907effffffffffffffffffffffffffffffffffffffffffffffffffffffffffffff1916908160001a905350600a85612f849190614ba1565b9450612f02565b8093505050505b919050565b600073ffffffffffffffffffffffffffffffffffffffff168273ffffffffffffffffffffffffffffffffffffffff161415613007576040517f08c379a0000000000000000000000000000000000000000000000000000000008152600401612ffe90614c7e565b60405180910390fd5b61301081612bd8565b15613050576040517f08c379a000000000000000000000000000000000000000000000000000000000815260040161304790614cea565b60405180910390fd5b61305c60008383612bce565b6001600360008473ffffffffffffffffffffffffffffffffffffffff1673ffffffffffffffffffffffffffffffffffffffff16815260200190815260200160002060008282546130ac9190614860565b92505081905550816002600083815260200190815260200160002060006101000a81548173ffffffffffffffffffffffffffffffffffffffff021916908373ffffffffffffffffffffffffffffffffffffffff160217905550808273ffffffffffffffffffffffffffffffffffffffff16600073ffffffffffffffffffffffffffffffffffffffff167fddf252ad1be2c89b69c2b068fc378daa952ba7f163c4a11628f55a4df523b3ef60405160405180910390a461316d60008383612bd3565b5050565b6000808273ffffffffffffffffffffffffffffffffffffffff163b119050919050565b8280546131a0906141e3565b90600052602060002090601f0160209004810192826131c25760008555613209565b82601f106131db57805160ff1916838001178555613209565b82800160010185558215613209579182015b828111156132085782518255916020019190600101906131ed565b5b5090506132169190613251565b5090565b604051806060016040528060608152602001600073ffffffffffffffffffffffffffffffffffffffff168152602001606081525090565b5b8082111561326a576000816000905550600101613252565b5090565b6000604051905090565b600080fd5b600080fd5b60007fffffffff0000000000000000000000000000000000000000000000000000000082169050919050565b6132b781613282565b81146132c257600080fd5b50565b6000813590506132d4816132ae565b92915050565b6000602082840312156132f0576132ef613278565b5b60006132fe848285016132c5565b91505092915050565b60008115159050919050565b61331c81613307565b82525050565b60006020820190506133376000830184613313565b92915050565b6000819050919050565b6133508161333d565b811461335b57600080fd5b50565b60008135905061336d81613347565b92915050565b6000806040838503121561338a57613389613278565b5b60006133988582860161335e565b92505060206133a98582860161335e565b9150509250929050565b6000602082840312156133c9576133c8613278565b5b60006133d78482850161335e565b91505092915050565b600081519050919050565b600082825260208201905092915050565b60005b8381101561341a5780820151818401526020810190506133ff565b83811115613429576000848401525b50505050565b6000601f19601f8301169050919050565b600061344b826133e0565b61345581856133eb565b93506134658185602086016133fc565b61346e8161342f565b840191505092915050565b600060208201905081810360008301526134938184613440565b905092915050565b600073ffffffffffffffffffffffffffffffffffffffff82169050919050565b60006134c68261349b565b9050919050565b6134d6816134bb565b82525050565b60006020820190506134f160008301846134cd565b92915050565b613500816134bb565b811461350b57600080fd5b50565b60008135905061351d816134f7565b92915050565b6000806040838503121561353a57613539613278565b5b60006135488582860161350e565b92505060206135598582860161335e565b9150509250929050565b61356c8161333d565b82525050565b600061016082019050613588600083018e613563565b613595602083018d6134cd565b6135a2604083018c6134cd565b6135af606083018b613563565b6135bc608083018a613563565b6135c960a0830189613313565b6135d660c0830188613563565b6135e360e0830187613313565b6135f1610100830186613563565b6135ff6101208301856134cd565b61360d610140830184613313565b9c9b505050505050505050505050565b60008060006060848603121561363657613635613278565b5b60006136448682870161350e565b93505060206136558682870161350e565b92505060406136668682870161335e565b9150509250925092565b600080fd5b600080fd5b7f4e487b7100000000000000000000000000000000000000000000000000000000600052604160045260246000fd5b6136b28261342f565b810181811067ffffffffffffffff821117156136d1576136d061367a565b5b80604052505050565b60006136e461326e565b90506136f082826136a9565b919050565b600067ffffffffffffffff8211156137105761370f61367a565b5b6137198261342f565b9050602081019050919050565b82818337600083830152505050565b6000613748613743846136f5565b6136da565b90508281526020810184848401111561376457613763613675565b5b61376f848285613726565b509392505050565b600082601f83011261378c5761378b613670565b5b813561379c848260208601613735565b91505092915050565b6000602082840312156137bb576137ba613278565b5b600082013567ffffffffffffffff8111156137d9576137d861327d565b5b6137e584828501613777565b91505092915050565b60006020828403121561380457613803613278565b5b60006138128482850161350e565b91505092915050565b60006020820190506138306000830184613563565b92915050565b61383f81613307565b811461384a57600080fd5b50565b60008135905061385c81613836565b92915050565b6000806040838503121561387957613878613278565b5b60006138878582860161350e565b92505060206138988582860161384d565b9150509250929050565b600067ffffffffffffffff8211156138bd576138bc61367a565b5b6138c68261342f565b9050602081019050919050565b60006138e66138e1846138a2565b6136da565b90508281526020810184848401111561390257613901613675565b5b61390d848285613726565b509392505050565b600082601f83011261392a57613929613670565b5b813561393a8482602086016138d3565b91505092915050565b6000806000806080858703121561395d5761395c613278565b5b600061396b8782880161350e565b945050602061397c8782880161350e565b935050604061398d8782880161335e565b925050606085013567ffffffffffffffff8111156139ae576139ad61327d565b5b6139ba87828801613915565b91505092959194509250565b600081519050919050565b600082825260208201905092915050565b6000819050602082019050919050565b6139fb8161333d565b82525050565b6000613a0d83836139f2565b60208301905092915050565b6000602082019050919050565b6000613a31826139c6565b613a3b81856139d1565b9350613a46836139e2565b8060005b83811015613a77578151613a5e8882613a01565b9750613a6983613a19565b925050600181019050613a4a565b5085935050505092915050565b613a8d816134bb565b82525050565b600081519050919050565b600082825260208201905092915050565b6000819050602082019050919050565b600082825260208201905092915050565b6000613adb826133e0565b613ae58185613abf565b9350613af58185602086016133fc565b613afe8161342f565b840191505092915050565b6000613b158383613ad0565b905092915050565b6000602082019050919050565b6000613b3582613a93565b613b3f8185613a9e565b935083602082028501613b5185613aaf565b8060005b85811015613b8d5784840389528151613b6e8582613b09565b9450613b7983613b1d565b925060208a01995050600181019050613b55565b50829750879550505050505092915050565b60006060830160008301518482036000860152613bbc8282613a26565b9150506020830151613bd16020860182613a84565b5060408301518482036040860152613be98282613b2a565b9150508091505092915050565b60006020820190508181036000830152613c108184613b9f565b905092915050565b60008060408385031215613c2f57613c2e613278565b5b6000613c3d8582860161350e565b9250506020613c4e8582860161350e565b9150509250929050565b7f596f75206f776e2074686973206e667400000000000000000000000000000000600082015250565b6000613c8e6010836133eb565b9150613c9982613c58565b602082019050919050565b60006020820190508181036000830152613cbd81613c81565b9050919050565b7f596f206f776e2074686973206f7572206e667400000000000000000000000000600082015250565b6000613cfa6013836133eb565b9150613d0582613cc4565b602082019050919050565b60006020820190508181036000830152613d2981613ced565b9050919050565b7f496e76616c6964205472616e73616374696f6e00000000000000000000000000600082015250565b6000613d666013836133eb565b9150613d7182613d30565b602082019050919050565b60006020820190508181036000830152613d9581613d59565b9050919050565b7f596f7520446f6e2774204861766520456e6f7567682045746820546f20426964600082015250565b6000613dd26020836133eb565b9150613ddd82613d9c565b602082019050919050565b60006020820190508181036000830152613e0181613dc5565b9050919050565b7f4e6674206973206e6f7420696e20417563746f6e000000000000000000000000600082015250565b6000613e3e6014836133eb565b9150613e4982613e08565b602082019050919050565b60006020820190508181036000830152613e6d81613e31565b9050919050565b7f43757272656e742042696420507269636520697320486967686572207468616e60008201527f20796f75722042616c616e636500000000000000000000000000000000000000602082015250565b6000613ed0602d836133eb565b9150613edb82613e74565b604082019050919050565b60006020820190508181036000830152613eff81613ec3565b9050919050565b7f4e6f2062616c616e636520666f756e6420666f722074686973206e6674000000600082015250565b6000613f3c601d836133eb565b9150613f4782613f06565b602082019050919050565b60006020820190508181036000830152613f6b81613f2f565b9050919050565b7f4f66666572206e6f7420666f756e640000000000000000000000000000000000600082015250565b6000613fa8600f836133eb565b9150613fb382613f72565b602082019050919050565b60006020820190508181036000830152613fd781613f9b565b9050919050565b7f496e76616c6964207472616e73616374696f6e00000000000000000000000000600082015250565b60006140146013836133eb565b915061401f82613fde565b602082019050919050565b6000602082019050818103600083015261404381614007565b9050919050565b7f596f75722062616c616e6365206973206c6f7700000000000000000000000000600082015250565b60006140806013836133eb565b915061408b8261404a565b602082019050919050565b600060208201905081810360008301526140af81614073565b9050919050565b7f4e4654206e6f7420617661696c61626c6520666f72206f666665727300000000600082015250565b60006140ec601c836133eb565b91506140f7826140b6565b602082019050919050565b6000602082019050818103600083015261411b816140df565b9050919050565b7f4f66666572205072696365204c657373207468616e2070726576696f7573204260008201527f6964732f4f666665727300000000000000000000000000000000000000000000602082015250565b600061417e602a836133eb565b915061418982614122565b604082019050919050565b600060208201905081810360008301526141ad81614171565b9050919050565b7f4e487b7100000000000000000000000000000000000000000000000000000000600052602260045260246000fd5b600060028204905060018216806141fb57607f821691505b6020821081141561420f5761420e6141b4565b5b50919050565b7f4552433732313a20617070726f76616c20746f2063757272656e74206f776e6560008201527f7200000000000000000000000000000000000000000000000000000000000000602082015250565b60006142716021836133eb565b915061427c82614215565b604082019050919050565b600060208201905081810360008301526142a081614264565b9050919050565b7f4552433732313a20617070726f76652063616c6c6572206973206e6f7420746f60008201527f6b656e206f776e6572206e6f7220617070726f76656420666f7220616c6c0000602082015250565b6000614303603e836133eb565b915061430e826142a7565b604082019050919050565b60006020820190508181036000830152614332816142f6565b9050919050565b7f596f75722042616c616e6520697320546f6f204c6f7700000000000000000000600082015250565b600061436f6016836133eb565b915061437a82614339565b602082019050919050565b6000602082019050818103600083015261439e81614362565b9050919050565b7f54686973206e667420697320696e206d61726b657420706c6163650000000000600082015250565b60006143db601b836133eb565b91506143e6826143a5565b602082019050919050565b6000602082019050818103600083015261440a816143ce565b9050919050565b7f4552433732313a2063616c6c6572206973206e6f7420746f6b656e206f776e6560008201527f72206e6f7220617070726f766564000000000000000000000000000000000000602082015250565b600061446d602e836133eb565b915061447882614411565b604082019050919050565b6000602082019050818103600083015261449c81614460565b9050919050565b7f4552433732313a20696e76616c696420746f6b656e2049440000000000000000600082015250565b60006144d96018836133eb565b91506144e4826144a3565b602082019050919050565b60006020820190508181036000830152614508816144cc565b9050919050565b7f4552433732313a2061646472657373207a65726f206973206e6f74206120766160008201527f6c6964206f776e65720000000000000000000000000000000000000000000000602082015250565b600061456b6029836133eb565b91506145768261450f565b604082019050919050565b6000602082019050818103600083015261459a8161455e565b9050919050565b7f4164642061206c697374696e6700000000000000000000000000000000000000600082015250565b60006145d7600d836133eb565b91506145e2826145a1565b602082019050919050565b60006020820190508181036000830152614606816145ca565b9050919050565b7f596f7520646f6e2774206861766520656e6f7567682045544800000000000000600082015250565b60006146436019836133eb565b915061464e8261460d565b602082019050919050565b6000602082019050818103600083015261467281614636565b9050919050565b600081905092915050565b600061468f826133e0565b6146998185614679565b93506146a98185602086016133fc565b80840191505092915050565b60006146c18285614684565b91506146cd8284614684565b91508190509392505050565b7f4552433732313a207472616e736665722066726f6d20696e636f72726563742060008201527f6f776e6572000000000000000000000000000000000000000000000000000000602082015250565b60006147356025836133eb565b9150614740826146d9565b604082019050919050565b6000602082019050818103600083015261476481614728565b9050919050565b7f4552433732313a207472616e7366657220746f20746865207a65726f2061646460008201527f7265737300000000000000000000000000000000000000000000000000000000602082015250565b60006147c76024836133eb565b91506147d28261476b565b604082019050919050565b600060208201905081810360008301526147f6816147ba565b9050919050565b7f4e487b7100000000000000000000000000000000000000000000000000000000600052601160045260246000fd5b60006148378261333d565b91506148428361333d565b925082821015614855576148546147fd565b5b828203905092915050565b600061486b8261333d565b91506148768361333d565b9250827fffffffffffffffffffffffffffffffffffffffffffffffffffffffffffffffff038211156148ab576148aa6147fd565b5b828201905092915050565b7f45524337323155524953746f726167653a2055524920736574206f66206e6f6e60008201527f6578697374656e7420746f6b656e000000000000000000000000000000000000602082015250565b6000614912602e836133eb565b915061491d826148b6565b604082019050919050565b6000602082019050818103600083015261494181614905565b9050919050565b7f4552433732313a20617070726f766520746f2063616c6c657200000000000000600082015250565b600061497e6019836133eb565b915061498982614948565b602082019050919050565b600060208201905081810360008301526149ad81614971565b9050919050565b7f4552433732313a207472616e7366657220746f206e6f6e20455243373231526560008201527f63656976657220696d706c656d656e7465720000000000000000000000000000602082015250565b6000614a106032836133eb565b9150614a1b826149b4565b604082019050919050565b60006020820190508181036000830152614a3f81614a03565b9050919050565b600081519050919050565b600082825260208201905092915050565b6000614a6d82614a46565b614a778185614a51565b9350614a878185602086016133fc565b614a908161342f565b840191505092915050565b6000608082019050614ab060008301876134cd565b614abd60208301866134cd565b614aca6040830185613563565b8181036060830152614adc8184614a62565b905095945050505050565b600081519050614af6816132ae565b92915050565b600060208284031215614b1257614b11613278565b5b6000614b2084828501614ae7565b91505092915050565b6000614b348261333d565b91507fffffffffffffffffffffffffffffffffffffffffffffffffffffffffffffffff821415614b6757614b666147fd565b5b600182019050919050565b7f4e487b7100000000000000000000000000000000000000000000000000000000600052601260045260246000fd5b6000614bac8261333d565b9150614bb78361333d565b925082614bc757614bc6614b72565b5b828204905092915050565b6000614bdd8261333d565b9150614be88361333d565b925082614bf857614bf7614b72565b5b828206905092915050565b7f4e487b7100000000000000000000000000000000000000000000000000000000600052603260045260246000fd5b7f4552433732313a206d696e7420746f20746865207a65726f2061646472657373600082015250565b6000614c686020836133eb565b9150614c7382614c32565b602082019050919050565b60006020820190508181036000830152614c9781614c5b565b9050919050565b7f4552433732313a20746f6b656e20616c7265616479206d696e74656400000000600082015250565b6000614cd4601c836133eb565b9150614cdf82614c9e565b602082019050919050565b60006020820190508181036000830152614d0381614cc7565b905091905056fea264697066735822122083a6338a6b43f35dcf4fe0a19f17ea3cdd0890670b9c433276411902e0d3985064736f6c63430008090033",
  "linkReferences": {},
  "deployedLinkReferences": {}
}