{
  "_format": "hh-sol-artifact-1",
  "contractName": "NFTCollection",
  "sourceName": "contracts/NFTCollection.sol",
  "abi": [
    {
      "inputs": [],
      "stateMutability": "nonpayable",
      "type": "constructor"
    },
    {
      "anonymous": false,
      "inputs": [
        {
          "indexed": true,
          "internalType": "address",
          "name": "owner",
          "type": "address"
        },
        {
          "indexed": true,
          "internalType": "address",
          "name": "approved",
          "type": "address"
        },
        {
          "indexed": true,
          "internalType": "uint256",
          "name": "tokenId",
          "type": "uint256"
        }
      ],
      "name": "Approval",
      "type": "event"
    },
    {
      "anonymous": false,
      "inputs": [
        {
          "indexed": true,
          "internalType": "address",
          "name": "owner",
          "type": "address"
        },
        {
          "indexed": true,
          "internalType": "address",
          "name": "operator",
          "type": "address"
        },
        {
          "indexed": false,
          "internalType": "bool",
          "name": "approved",
          "type": "bool"
        }
      ],
      "name": "ApprovalForAll",
      "type": "event"
    },
    {
      "anonymous": false,
      "inputs": [
        {
          "indexed": true,
          "internalType": "address",
          "name": "from",
          "type": "address"
        },
        {
          "indexed": true,
          "internalType": "address",
          "name": "to",
          "type": "address"
        },
        {
          "indexed": true,
          "internalType": "uint256",
          "name": "tokenId",
          "type": "uint256"
        }
      ],
      "name": "Transfer",
      "type": "event"
    },
    {
      "inputs": [
        {
          "internalType": "address",
          "name": "to",
          "type": "address"
        },
        {
          "internalType": "uint256",
          "name": "tokenId",
          "type": "uint256"
        }
      ],
      "name": "approve",
      "outputs": [],
      "stateMutability": "nonpayable",
      "type": "function"
    },
    {
      "inputs": [],
      "name": "auction",
      "outputs": [],
      "stateMutability": "payable",
      "type": "function"
    },
    {
      "inputs": [
        {
          "internalType": "address",
          "name": "owner",
          "type": "address"
        }
      ],
      "name": "balanceOf",
      "outputs": [
        {
          "internalType": "uint256",
          "name": "",
          "type": "uint256"
        }
      ],
      "stateMutability": "view",
      "type": "function"
    },
    {
      "inputs": [
        {
          "internalType": "uint256",
          "name": "itemId",
          "type": "uint256"
        },
        {
          "internalType": "address",
          "name": "_nftContract",
          "type": "address"
        }
      ],
      "name": "buyNFT",
      "outputs": [],
      "stateMutability": "payable",
      "type": "function"
    },
    {
      "inputs": [],
      "name": "createToken",
      "outputs": [
        {
          "internalType": "uint256",
          "name": "",
          "type": "uint256"
        }
      ],
      "stateMutability": "nonpayable",
      "type": "function"
    },
    {
      "inputs": [
        {
          "internalType": "uint256",
          "name": "tokenId",
          "type": "uint256"
        }
      ],
      "name": "getApproved",
      "outputs": [
        {
          "internalType": "address",
          "name": "",
          "type": "address"
        }
      ],
      "stateMutability": "view",
      "type": "function"
    },
    {
      "inputs": [
        {
          "internalType": "uint256",
          "name": "",
          "type": "uint256"
        }
      ],
      "name": "idToMarketItem",
      "outputs": [
        {
          "internalType": "uint256",
          "name": "itemId",
          "type": "uint256"
        },
        {
          "internalType": "uint256",
          "name": "tokenId",
          "type": "uint256"
        },
        {
          "internalType": "address payable",
          "name": "seller",
          "type": "address"
        },
        {
          "internalType": "address payable",
          "name": "owner",
          "type": "address"
        },
        {
          "internalType": "uint256",
          "name": "price",
          "type": "uint256"
        },
        {
          "internalType": "uint256",
          "name": "uploadedAt",
          "type": "uint256"
        },
        {
          "internalType": "uint256",
          "name": "lastTransactionDate",
          "type": "uint256"
        }
      ],
      "stateMutability": "view",
      "type": "function"
    },
    {
      "inputs": [
        {
          "internalType": "address",
          "name": "owner",
          "type": "address"
        },
        {
          "internalType": "address",
          "name": "operator",
          "type": "address"
        }
      ],
      "name": "isApprovedForAll",
      "outputs": [
        {
          "internalType": "bool",
          "name": "",
          "type": "bool"
        }
      ],
      "stateMutability": "view",
      "type": "function"
    },
    {
      "inputs": [
        {
          "internalType": "uint256",
          "name": "_tokenId",
          "type": "uint256"
        },
        {
          "internalType": "uint256",
          "name": "_listingPrice",
          "type": "uint256"
        }
      ],
      "name": "listNFT",
      "outputs": [],
      "stateMutability": "payable",
      "type": "function"
    },
    {
      "inputs": [],
      "name": "name",
      "outputs": [
        {
          "internalType": "string",
          "name": "",
          "type": "string"
        }
      ],
      "stateMutability": "view",
      "type": "function"
    },
    {
      "inputs": [
        {
          "internalType": "uint256",
          "name": "tokenId",
          "type": "uint256"
        }
      ],
      "name": "ownerOf",
      "outputs": [
        {
          "internalType": "address",
          "name": "",
          "type": "address"
        }
      ],
      "stateMutability": "view",
      "type": "function"
    },
    {
      "inputs": [
        {
          "internalType": "address",
          "name": "from",
          "type": "address"
        },
        {
          "internalType": "address",
          "name": "to",
          "type": "address"
        },
        {
          "internalType": "uint256",
          "name": "tokenId",
          "type": "uint256"
        }
      ],
      "name": "safeTransferFrom",
      "outputs": [],
      "stateMutability": "nonpayable",
      "type": "function"
    },
    {
      "inputs": [
        {
          "internalType": "address",
          "name": "from",
          "type": "address"
        },
        {
          "internalType": "address",
          "name": "to",
          "type": "address"
        },
        {
          "internalType": "uint256",
          "name": "tokenId",
          "type": "uint256"
        },
        {
          "internalType": "bytes",
          "name": "data",
          "type": "bytes"
        }
      ],
      "name": "safeTransferFrom",
      "outputs": [],
      "stateMutability": "nonpayable",
      "type": "function"
    },
    {
      "inputs": [
        {
          "internalType": "address",
          "name": "operator",
          "type": "address"
        },
        {
          "internalType": "bool",
          "name": "approved",
          "type": "bool"
        }
      ],
      "name": "setApprovalForAll",
      "outputs": [],
      "stateMutability": "nonpayable",
      "type": "function"
    },
    {
      "inputs": [
        {
          "internalType": "bytes4",
          "name": "interfaceId",
          "type": "bytes4"
        }
      ],
      "name": "supportsInterface",
      "outputs": [
        {
          "internalType": "bool",
          "name": "",
          "type": "bool"
        }
      ],
      "stateMutability": "view",
      "type": "function"
    },
    {
      "inputs": [],
      "name": "symbol",
      "outputs": [
        {
          "internalType": "string",
          "name": "",
          "type": "string"
        }
      ],
      "stateMutability": "view",
      "type": "function"
    },
    {
      "inputs": [
        {
          "internalType": "uint256",
          "name": "tokenId",
          "type": "uint256"
        }
      ],
      "name": "tokenURI",
      "outputs": [
        {
          "internalType": "string",
          "name": "",
          "type": "string"
        }
      ],
      "stateMutability": "view",
      "type": "function"
    },
    {
      "inputs": [
        {
          "internalType": "address",
          "name": "from",
          "type": "address"
        },
        {
          "internalType": "address",
          "name": "to",
          "type": "address"
        },
        {
          "internalType": "uint256",
          "name": "tokenId",
          "type": "uint256"
        }
      ],
      "name": "transferFrom",
      "outputs": [],
      "stateMutability": "nonpayable",
      "type": "function"
    }
  ],
  "bytecode": "0x60806040523480156200001157600080fd5b506040518060400160405280600e81526020017f4e465420436f6c6c656374696f6e0000000000000000000000000000000000008152506040518060400160405280600481526020017f4e46544300000000000000000000000000000000000000000000000000000000815250816000908051906020019062000096929190620000b8565b508060019080519060200190620000af929190620000b8565b505050620001cd565b828054620000c69062000197565b90600052602060002090601f016020900481019282620000ea576000855562000136565b82601f106200010557805160ff191683800117855562000136565b8280016001018555821562000136579182015b828111156200013557825182559160200191906001019062000118565b5b50905062000145919062000149565b5090565b5b80821115620001645760008160009055506001016200014a565b5090565b7f4e487b7100000000000000000000000000000000000000000000000000000000600052602260045260246000fd5b60006002820490506001821680620001b057607f821691505b60208210811415620001c757620001c662000168565b5b50919050565b6131cb80620001dd6000396000f3fe6080604052600436106101095760003560e01c806394383f1411610095578063b88d4fde11610064578063b88d4fde1461034d578063c87b56dd14610376578063d8db47a7146103b3578063e61a70c0146103cf578063e985e9c51461041257610109565b806394383f14146102b257806395d89b41146102ce5780639cbf9e36146102f9578063a22cb4651461032457610109565b806323b872dd116100dc57806323b872dd146101dc57806342842e0e146102055780636352211e1461022e57806370a082311461026b5780637d9f6db5146102a857610109565b806301ffc9a71461010e57806306fdde031461014b578063081812fc14610176578063095ea7b3146101b3575b600080fd5b34801561011a57600080fd5b5061013560048036038101906101309190611f46565b61044f565b6040516101429190611f8e565b60405180910390f35b34801561015757600080fd5b50610160610531565b60405161016d9190612042565b60405180910390f35b34801561018257600080fd5b5061019d6004803603810190610198919061209a565b6105c3565b6040516101aa9190612108565b60405180910390f35b3480156101bf57600080fd5b506101da60048036038101906101d5919061214f565b610609565b005b3480156101e857600080fd5b5061020360048036038101906101fe919061218f565b610721565b005b34801561021157600080fd5b5061022c6004803603810190610227919061218f565b610781565b005b34801561023a57600080fd5b506102556004803603810190610250919061209a565b6107a1565b6040516102629190612108565b60405180910390f35b34801561027757600080fd5b50610292600480360381019061028d91906121e2565b610853565b60405161029f919061221e565b60405180910390f35b6102b061090b565b005b6102cc60048036038101906102c79190612239565b61090d565b005b3480156102da57600080fd5b506102e3610af1565b6040516102f09190612042565b60405180910390f35b34801561030557600080fd5b5061030e610b83565b60405161031b919061221e565b60405180910390f35b34801561033057600080fd5b5061034b600480360381019061034691906122a5565b610be0565b005b34801561035957600080fd5b50610374600480360381019061036f919061241a565b610bf6565b005b34801561038257600080fd5b5061039d6004803603810190610398919061209a565b610c58565b6040516103aa9190612042565b60405180910390f35b6103cd60048036038101906103c8919061249d565b610d6b565b005b3480156103db57600080fd5b506103f660048036038101906103f1919061209a565b610feb565b60405161040997969594939291906124fe565b60405180910390f35b34801561041e57600080fd5b506104396004803603810190610434919061256d565b61106d565b6040516104469190611f8e565b60405180910390f35b60007f80ac58cd000000000000000000000000000000000000000000000000000000007bffffffffffffffffffffffffffffffffffffffffffffffffffffffff1916827bffffffffffffffffffffffffffffffffffffffffffffffffffffffff1916148061051a57507f5b5e139f000000000000000000000000000000000000000000000000000000007bffffffffffffffffffffffffffffffffffffffffffffffffffffffff1916827bffffffffffffffffffffffffffffffffffffffffffffffffffffffff1916145b8061052a575061052982611101565b5b9050919050565b606060008054610540906125dc565b80601f016020809104026020016040519081016040528092919081815260200182805461056c906125dc565b80156105b95780601f1061058e576101008083540402835291602001916105b9565b820191906000526020600020905b81548152906001019060200180831161059c57829003601f168201915b5050505050905090565b60006105ce8261116b565b6004600083815260200190815260200160002060009054906101000a900473ffffffffffffffffffffffffffffffffffffffff169050919050565b6000610614826107a1565b90508073ffffffffffffffffffffffffffffffffffffffff168373ffffffffffffffffffffffffffffffffffffffff161415610685576040517f08c379a000000000000000000000000000000000000000000000000000000000815260040161067c90612680565b60405180910390fd5b8073ffffffffffffffffffffffffffffffffffffffff166106a46111b6565b73ffffffffffffffffffffffffffffffffffffffff1614806106d357506106d2816106cd6111b6565b61106d565b5b610712576040517f08c379a000000000000000000000000000000000000000000000000000000000815260040161070990612712565b60405180910390fd5b61071c83836111be565b505050565b61073261072c6111b6565b82611277565b610771576040517f08c379a0000000000000000000000000000000000000000000000000000000008152600401610768906127a4565b60405180910390fd5b61077c83838361130c565b505050565b61079c83838360405180602001604052806000815250610bf6565b505050565b6000806002600084815260200190815260200160002060009054906101000a900473ffffffffffffffffffffffffffffffffffffffff169050600073ffffffffffffffffffffffffffffffffffffffff168173ffffffffffffffffffffffffffffffffffffffff16141561084a576040517f08c379a000000000000000000000000000000000000000000000000000000000815260040161084190612810565b60405180910390fd5b80915050919050565b60008073ffffffffffffffffffffffffffffffffffffffff168273ffffffffffffffffffffffffffffffffffffffff1614156108c4576040517f08c379a00000000000000000000000000000000000000000000000000000000081526004016108bb906128a2565b60405180910390fd5b600360008373ffffffffffffffffffffffffffffffffffffffff1673ffffffffffffffffffffffffffffffffffffffff168152602001908152602001600020549050919050565b565b60008111610950576040517f08c379a00000000000000000000000000000000000000000000000000000000081526004016109479061290e565b60405180910390fd5b80341015610993576040517f08c379a000000000000000000000000000000000000000000000000000000000815260040161098a9061297a565b60405180910390fd5b600061099f6008611573565b90506040518060e001604052808281526020018481526020013373ffffffffffffffffffffffffffffffffffffffff168152602001600073ffffffffffffffffffffffffffffffffffffffff1681526020018381526020014281526020014281525060096000838152602001908152602001600020600082015181600001556020820151816001015560408201518160020160006101000a81548173ffffffffffffffffffffffffffffffffffffffff021916908373ffffffffffffffffffffffffffffffffffffffff16021790555060608201518160030160006101000a81548173ffffffffffffffffffffffffffffffffffffffff021916908373ffffffffffffffffffffffffffffffffffffffff1602179055506080820151816004015560a0820151816005015560c08201518160060155905050610ae2333085610781565b610aec6008611581565b505050565b606060018054610b00906125dc565b80601f0160208091040260200160405190810160405280929190818152602001828054610b2c906125dc565b8015610b795780601f10610b4e57610100808354040283529160200191610b79565b820191906000526020600020905b815481529060010190602001808311610b5c57829003601f168201915b5050505050905090565b6000806040518060600160405280603581526020016131616035913990506000610bad6007611573565b9050610bb93382611597565b610bc381836115b5565b610bcd6007611581565b610bd8306001610be0565b809250505090565b610bf2610beb6111b6565b8383611629565b5050565b610c07610c016111b6565b83611277565b610c46576040517f08c379a0000000000000000000000000000000000000000000000000000000008152600401610c3d906127a4565b60405180910390fd5b610c5284848484611796565b50505050565b6060610c638261116b565b6000600660008481526020019081526020016000208054610c83906125dc565b80601f0160208091040260200160405190810160405280929190818152602001828054610caf906125dc565b8015610cfc5780601f10610cd157610100808354040283529160200191610cfc565b820191906000526020600020905b815481529060010190602001808311610cdf57829003601f168201915b505050505090506000610d0d6117f2565b9050600081511415610d23578192505050610d66565b600082511115610d58578082604051602001610d409291906129d6565b60405160208183030381529060405292505050610d66565b610d6184611809565b925050505b919050565b6000600960008481526020019081526020016000206004015490506000600960008581526020019081526020016000206001015490503373ffffffffffffffffffffffffffffffffffffffff166009600086815260200190815260200160002060020160009054906101000a900473ffffffffffffffffffffffffffffffffffffffff1673ffffffffffffffffffffffffffffffffffffffff161415610e46576040517f08c379a0000000000000000000000000000000000000000000000000000000008152600401610e3d90612a46565b60405180910390fd5b81341015610e89576040517f08c379a0000000000000000000000000000000000000000000000000000000008152600401610e8090612ad8565b60405180910390fd5b6009600085815260200190815260200160002060020160009054906101000a900473ffffffffffffffffffffffffffffffffffffffff1673ffffffffffffffffffffffffffffffffffffffff166108fc349081150290604051600060405180830381858888f19350505050158015610f05573d6000803e3d6000fd5b50336009600086815260200190815260200160002060030160006101000a81548173ffffffffffffffffffffffffffffffffffffffff021916908373ffffffffffffffffffffffffffffffffffffffff1602179055508273ffffffffffffffffffffffffffffffffffffffff166323b872dd3033846040518463ffffffff1660e01b8152600401610f9893929190612af8565b600060405180830381600087803b158015610fb257600080fd5b505af1158015610fc6573d6000803e3d6000fd5b5050505042600960008681526020019081526020016000206006018190555050505050565b60096020528060005260406000206000915090508060000154908060010154908060020160009054906101000a900473ffffffffffffffffffffffffffffffffffffffff16908060030160009054906101000a900473ffffffffffffffffffffffffffffffffffffffff16908060040154908060050154908060060154905087565b6000600560008473ffffffffffffffffffffffffffffffffffffffff1673ffffffffffffffffffffffffffffffffffffffff16815260200190815260200160002060008373ffffffffffffffffffffffffffffffffffffffff1673ffffffffffffffffffffffffffffffffffffffff16815260200190815260200160002060009054906101000a900460ff16905092915050565b60007f01ffc9a7000000000000000000000000000000000000000000000000000000007bffffffffffffffffffffffffffffffffffffffffffffffffffffffff1916827bffffffffffffffffffffffffffffffffffffffffffffffffffffffff1916149050919050565b61117481611871565b6111b3576040517f08c379a00000000000000000000000000000000000000000000000000000000081526004016111aa90612810565b60405180910390fd5b50565b600033905090565b816004600083815260200190815260200160002060006101000a81548173ffffffffffffffffffffffffffffffffffffffff021916908373ffffffffffffffffffffffffffffffffffffffff160217905550808273ffffffffffffffffffffffffffffffffffffffff16611231836107a1565b73ffffffffffffffffffffffffffffffffffffffff167f8c5be1e5ebec7d5bd14f71427d1e84f3dd0314c0f7b2291e5b200ac8c7c3b92560405160405180910390a45050565b600080611283836107a1565b90508073ffffffffffffffffffffffffffffffffffffffff168473ffffffffffffffffffffffffffffffffffffffff1614806112c557506112c4818561106d565b5b8061130357508373ffffffffffffffffffffffffffffffffffffffff166112eb846105c3565b73ffffffffffffffffffffffffffffffffffffffff16145b91505092915050565b8273ffffffffffffffffffffffffffffffffffffffff1661132c826107a1565b73ffffffffffffffffffffffffffffffffffffffff1614611382576040517f08c379a000000000000000000000000000000000000000000000000000000000815260040161137990612ba1565b60405180910390fd5b600073ffffffffffffffffffffffffffffffffffffffff168273ffffffffffffffffffffffffffffffffffffffff1614156113f2576040517f08c379a00000000000000000000000000000000000000000000000000000000081526004016113e990612c33565b60405180910390fd5b6113fd8383836118dd565b6114086000826111be565b6001600360008573ffffffffffffffffffffffffffffffffffffffff1673ffffffffffffffffffffffffffffffffffffffff16815260200190815260200160002060008282546114589190612c82565b925050819055506001600360008473ffffffffffffffffffffffffffffffffffffffff1673ffffffffffffffffffffffffffffffffffffffff16815260200190815260200160002060008282546114af9190612cb6565b92505081905550816002600083815260200190815260200160002060006101000a81548173ffffffffffffffffffffffffffffffffffffffff021916908373ffffffffffffffffffffffffffffffffffffffff160217905550808273ffffffffffffffffffffffffffffffffffffffff168473ffffffffffffffffffffffffffffffffffffffff167fddf252ad1be2c89b69c2b068fc378daa952ba7f163c4a11628f55a4df523b3ef60405160405180910390a461156e8383836118e2565b505050565b600081600001549050919050565b6001816000016000828254019250508190555050565b6115b18282604051806020016040528060008152506118e7565b5050565b6115be82611871565b6115fd576040517f08c379a00000000000000000000000000000000000000000000000000000000081526004016115f490612d7e565b60405180910390fd5b80600660008481526020019081526020016000209080519060200190611624929190611e37565b505050565b8173ffffffffffffffffffffffffffffffffffffffff168373ffffffffffffffffffffffffffffffffffffffff161415611698576040517f08c379a000000000000000000000000000000000000000000000000000000000815260040161168f90612dea565b60405180910390fd5b80600560008573ffffffffffffffffffffffffffffffffffffffff1673ffffffffffffffffffffffffffffffffffffffff16815260200190815260200160002060008473ffffffffffffffffffffffffffffffffffffffff1673ffffffffffffffffffffffffffffffffffffffff16815260200190815260200160002060006101000a81548160ff0219169083151502179055508173ffffffffffffffffffffffffffffffffffffffff168373ffffffffffffffffffffffffffffffffffffffff167f17307eab39ab6107e8899845ad3d59bd9653f200f220920489ca2b5937696c31836040516117899190611f8e565b60405180910390a3505050565b6117a184848461130c565b6117ad84848484611942565b6117ec576040517f08c379a00000000000000000000000000000000000000000000000000000000081526004016117e390612e7c565b60405180910390fd5b50505050565b606060405180602001604052806000815250905090565b60606118148261116b565b600061181e6117f2565b9050600081511161183e5760405180602001604052806000815250611869565b8061184884611ad9565b6040516020016118599291906129d6565b6040516020818303038152906040525b915050919050565b60008073ffffffffffffffffffffffffffffffffffffffff166002600084815260200190815260200160002060009054906101000a900473ffffffffffffffffffffffffffffffffffffffff1673ffffffffffffffffffffffffffffffffffffffff1614159050919050565b505050565b505050565b6118f18383611c3a565b6118fe6000848484611942565b61193d576040517f08c379a000000000000000000000000000000000000000000000000000000000815260040161193490612e7c565b60405180910390fd5b505050565b60006119638473ffffffffffffffffffffffffffffffffffffffff16611e14565b15611acc578373ffffffffffffffffffffffffffffffffffffffff1663150b7a0261198c6111b6565b8786866040518563ffffffff1660e01b81526004016119ae9493929190612ef1565b602060405180830381600087803b1580156119c857600080fd5b505af19250505080156119f957506040513d601f19601f820116820180604052508101906119f69190612f52565b60015b611a7c573d8060008114611a29576040519150601f19603f3d011682016040523d82523d6000602084013e611a2e565b606091505b50600081511415611a74576040517f08c379a0000000000000000000000000000000000000000000000000000000008152600401611a6b90612e7c565b60405180910390fd5b805181602001fd5b63150b7a0260e01b7bffffffffffffffffffffffffffffffffffffffffffffffffffffffff1916817bffffffffffffffffffffffffffffffffffffffffffffffffffffffff191614915050611ad1565b600190505b949350505050565b60606000821415611b21576040518060400160405280600181526020017f30000000000000000000000000000000000000000000000000000000000000008152509050611c35565b600082905060005b60008214611b53578080611b3c90612f7f565b915050600a82611b4c9190612ff7565b9150611b29565b60008167ffffffffffffffff811115611b6f57611b6e6122ef565b5b6040519080825280601f01601f191660200182016040528015611ba15781602001600182028036833780820191505090505b5090505b60008514611c2e57600182611bba9190612c82565b9150600a85611bc99190613028565b6030611bd59190612cb6565b60f81b818381518110611beb57611bea613059565b5b60200101907effffffffffffffffffffffffffffffffffffffffffffffffffffffffffffff1916908160001a905350600a85611c279190612ff7565b9450611ba5565b8093505050505b919050565b600073ffffffffffffffffffffffffffffffffffffffff168273ffffffffffffffffffffffffffffffffffffffff161415611caa576040517f08c379a0000000000000000000000000000000000000000000000000000000008152600401611ca1906130d4565b60405180910390fd5b611cb381611871565b15611cf3576040517f08c379a0000000000000000000000000000000000000000000000000000000008152600401611cea90613140565b60405180910390fd5b611cff600083836118dd565b6001600360008473ffffffffffffffffffffffffffffffffffffffff1673ffffffffffffffffffffffffffffffffffffffff1681526020019081526020016000206000828254611d4f9190612cb6565b92505081905550816002600083815260200190815260200160002060006101000a81548173ffffffffffffffffffffffffffffffffffffffff021916908373ffffffffffffffffffffffffffffffffffffffff160217905550808273ffffffffffffffffffffffffffffffffffffffff16600073ffffffffffffffffffffffffffffffffffffffff167fddf252ad1be2c89b69c2b068fc378daa952ba7f163c4a11628f55a4df523b3ef60405160405180910390a4611e10600083836118e2565b5050565b6000808273ffffffffffffffffffffffffffffffffffffffff163b119050919050565b828054611e43906125dc565b90600052602060002090601f016020900481019282611e655760008555611eac565b82601f10611e7e57805160ff1916838001178555611eac565b82800160010185558215611eac579182015b82811115611eab578251825591602001919060010190611e90565b5b509050611eb99190611ebd565b5090565b5b80821115611ed6576000816000905550600101611ebe565b5090565b6000604051905090565b600080fd5b600080fd5b60007fffffffff0000000000000000000000000000000000000000000000000000000082169050919050565b611f2381611eee565b8114611f2e57600080fd5b50565b600081359050611f4081611f1a565b92915050565b600060208284031215611f5c57611f5b611ee4565b5b6000611f6a84828501611f31565b91505092915050565b60008115159050919050565b611f8881611f73565b82525050565b6000602082019050611fa36000830184611f7f565b92915050565b600081519050919050565b600082825260208201905092915050565b60005b83811015611fe3578082015181840152602081019050611fc8565b83811115611ff2576000848401525b50505050565b6000601f19601f8301169050919050565b600061201482611fa9565b61201e8185611fb4565b935061202e818560208601611fc5565b61203781611ff8565b840191505092915050565b6000602082019050818103600083015261205c8184612009565b905092915050565b6000819050919050565b61207781612064565b811461208257600080fd5b50565b6000813590506120948161206e565b92915050565b6000602082840312156120b0576120af611ee4565b5b60006120be84828501612085565b91505092915050565b600073ffffffffffffffffffffffffffffffffffffffff82169050919050565b60006120f2826120c7565b9050919050565b612102816120e7565b82525050565b600060208201905061211d60008301846120f9565b92915050565b61212c816120e7565b811461213757600080fd5b50565b60008135905061214981612123565b92915050565b6000806040838503121561216657612165611ee4565b5b60006121748582860161213a565b925050602061218585828601612085565b9150509250929050565b6000806000606084860312156121a8576121a7611ee4565b5b60006121b68682870161213a565b93505060206121c78682870161213a565b92505060406121d886828701612085565b9150509250925092565b6000602082840312156121f8576121f7611ee4565b5b60006122068482850161213a565b91505092915050565b61221881612064565b82525050565b6000602082019050612233600083018461220f565b92915050565b600080604083850312156122505761224f611ee4565b5b600061225e85828601612085565b925050602061226f85828601612085565b9150509250929050565b61228281611f73565b811461228d57600080fd5b50565b60008135905061229f81612279565b92915050565b600080604083850312156122bc576122bb611ee4565b5b60006122ca8582860161213a565b92505060206122db85828601612290565b9150509250929050565b600080fd5b600080fd5b7f4e487b7100000000000000000000000000000000000000000000000000000000600052604160045260246000fd5b61232782611ff8565b810181811067ffffffffffffffff82111715612346576123456122ef565b5b80604052505050565b6000612359611eda565b9050612365828261231e565b919050565b600067ffffffffffffffff821115612385576123846122ef565b5b61238e82611ff8565b9050602081019050919050565b82818337600083830152505050565b60006123bd6123b88461236a565b61234f565b9050828152602081018484840111156123d9576123d86122ea565b5b6123e484828561239b565b509392505050565b600082601f830112612401576124006122e5565b5b81356124118482602086016123aa565b91505092915050565b6000806000806080858703121561243457612433611ee4565b5b60006124428782880161213a565b94505060206124538782880161213a565b935050604061246487828801612085565b925050606085013567ffffffffffffffff81111561248557612484611ee9565b5b612491878288016123ec565b91505092959194509250565b600080604083850312156124b4576124b3611ee4565b5b60006124c285828601612085565b92505060206124d38582860161213a565b9150509250929050565b60006124e8826120c7565b9050919050565b6124f8816124dd565b82525050565b600060e082019050612513600083018a61220f565b612520602083018961220f565b61252d60408301886124ef565b61253a60608301876124ef565b612547608083018661220f565b61255460a083018561220f565b61256160c083018461220f565b98975050505050505050565b6000806040838503121561258457612583611ee4565b5b60006125928582860161213a565b92505060206125a38582860161213a565b9150509250929050565b7f4e487b7100000000000000000000000000000000000000000000000000000000600052602260045260246000fd5b600060028204905060018216806125f457607f821691505b60208210811415612608576126076125ad565b5b50919050565b7f4552433732313a20617070726f76616c20746f2063757272656e74206f776e6560008201527f7200000000000000000000000000000000000000000000000000000000000000602082015250565b600061266a602183611fb4565b91506126758261260e565b604082019050919050565b600060208201905081810360008301526126998161265d565b9050919050565b7f4552433732313a20617070726f76652063616c6c6572206973206e6f7420746f60008201527f6b656e206f776e6572206e6f7220617070726f76656420666f7220616c6c0000602082015250565b60006126fc603e83611fb4565b9150612707826126a0565b604082019050919050565b6000602082019050818103600083015261272b816126ef565b9050919050565b7f4552433732313a2063616c6c6572206973206e6f7420746f6b656e206f776e6560008201527f72206e6f7220617070726f766564000000000000000000000000000000000000602082015250565b600061278e602e83611fb4565b915061279982612732565b604082019050919050565b600060208201905081810360008301526127bd81612781565b9050919050565b7f4552433732313a20696e76616c696420746f6b656e2049440000000000000000600082015250565b60006127fa601883611fb4565b9150612805826127c4565b602082019050919050565b60006020820190508181036000830152612829816127ed565b9050919050565b7f4552433732313a2061646472657373207a65726f206973206e6f74206120766160008201527f6c6964206f776e65720000000000000000000000000000000000000000000000602082015250565b600061288c602983611fb4565b915061289782612830565b604082019050919050565b600060208201905081810360008301526128bb8161287f565b9050919050565b7f496e737566666963656e742062616c616e636500000000000000000000000000600082015250565b60006128f8601383611fb4565b9150612903826128c2565b602082019050919050565b60006020820190508181036000830152612927816128eb565b9050919050565b7f596f7520646f6e2774206861766520656e6f7567682045544800000000000000600082015250565b6000612964601983611fb4565b915061296f8261292e565b602082019050919050565b6000602082019050818103600083015261299381612957565b9050919050565b600081905092915050565b60006129b082611fa9565b6129ba818561299a565b93506129ca818560208601611fc5565b80840191505092915050565b60006129e282856129a5565b91506129ee82846129a5565b91508190509392505050565b7f596f7527726520746865206f776e6572206f662074686973206e667400000000600082015250565b6000612a30601c83611fb4565b9150612a3b826129fa565b602082019050919050565b60006020820190508181036000830152612a5f81612a23565b9050919050565b7f506c65617365207375626d6974207468652061736b696e67207072696365206960008201527f6e206f7264657220746f20636f6d706c65746520746865207075726368617365602082015250565b6000612ac2604083611fb4565b9150612acd82612a66565b604082019050919050565b60006020820190508181036000830152612af181612ab5565b9050919050565b6000606082019050612b0d60008301866120f9565b612b1a60208301856120f9565b612b27604083018461220f565b949350505050565b7f4552433732313a207472616e736665722066726f6d20696e636f72726563742060008201527f6f776e6572000000000000000000000000000000000000000000000000000000602082015250565b6000612b8b602583611fb4565b9150612b9682612b2f565b604082019050919050565b60006020820190508181036000830152612bba81612b7e565b9050919050565b7f4552433732313a207472616e7366657220746f20746865207a65726f2061646460008201527f7265737300000000000000000000000000000000000000000000000000000000602082015250565b6000612c1d602483611fb4565b9150612c2882612bc1565b604082019050919050565b60006020820190508181036000830152612c4c81612c10565b9050919050565b7f4e487b7100000000000000000000000000000000000000000000000000000000600052601160045260246000fd5b6000612c8d82612064565b9150612c9883612064565b925082821015612cab57612caa612c53565b5b828203905092915050565b6000612cc182612064565b9150612ccc83612064565b9250827fffffffffffffffffffffffffffffffffffffffffffffffffffffffffffffffff03821115612d0157612d00612c53565b5b828201905092915050565b7f45524337323155524953746f726167653a2055524920736574206f66206e6f6e60008201527f6578697374656e7420746f6b656e000000000000000000000000000000000000602082015250565b6000612d68602e83611fb4565b9150612d7382612d0c565b604082019050919050565b60006020820190508181036000830152612d9781612d5b565b9050919050565b7f4552433732313a20617070726f766520746f2063616c6c657200000000000000600082015250565b6000612dd4601983611fb4565b9150612ddf82612d9e565b602082019050919050565b60006020820190508181036000830152612e0381612dc7565b9050919050565b7f4552433732313a207472616e7366657220746f206e6f6e20455243373231526560008201527f63656976657220696d706c656d656e7465720000000000000000000000000000602082015250565b6000612e66603283611fb4565b9150612e7182612e0a565b604082019050919050565b60006020820190508181036000830152612e9581612e59565b9050919050565b600081519050919050565b600082825260208201905092915050565b6000612ec382612e9c565b612ecd8185612ea7565b9350612edd818560208601611fc5565b612ee681611ff8565b840191505092915050565b6000608082019050612f0660008301876120f9565b612f1360208301866120f9565b612f20604083018561220f565b8181036060830152612f328184612eb8565b905095945050505050565b600081519050612f4c81611f1a565b92915050565b600060208284031215612f6857612f67611ee4565b5b6000612f7684828501612f3d565b91505092915050565b6000612f8a82612064565b91507fffffffffffffffffffffffffffffffffffffffffffffffffffffffffffffffff821415612fbd57612fbc612c53565b5b600182019050919050565b7f4e487b7100000000000000000000000000000000000000000000000000000000600052601260045260246000fd5b600061300282612064565b915061300d83612064565b92508261301d5761301c612fc8565b5b828204905092915050565b600061303382612064565b915061303e83612064565b92508261304e5761304d612fc8565b5b828206905092915050565b7f4e487b7100000000000000000000000000000000000000000000000000000000600052603260045260246000fd5b7f4552433732313a206d696e7420746f20746865207a65726f2061646472657373600082015250565b60006130be602083611fb4565b91506130c982613088565b602082019050919050565b600060208201905081810360008301526130ed816130b1565b9050919050565b7f4552433732313a20746f6b656e20616c7265616479206d696e74656400000000600082015250565b600061312a601c83611fb4565b9150613135826130f4565b602082019050919050565b600060208201905081810360008301526131598161311d565b905091905056fe697066733a2f2f516d645074436b677450787551593435794438686145566448676d734b776e6a3647516a37356635726464534472a2646970667358221220d3b8a4647957f04e5e6e4cacf0bd64ad34f1c561dcd9c218b2e240d53a79ffc864736f6c63430008090033",
  "linkReferences": {},
  "deployedLinkReferences": {}
}